:020000041000EA
:1000000000B5324B212058609868022188439860DF
:10001000D860186158612E4B002199600221596106
:100020000121F02299502B49196001219960352056
:1000300000F044F80222904214D00621196600F024
:1000400034F8196E01211966002018661A6600F04E
:100050002CF8196E196E196E052000F02FF8012189
:100060000842F9D1002199601B49196000215960AB
:100070001A491B48016001219960EB211966A021F2
:10008000196600F012F800219960164914480160C1
:100090000121996001BC002800D000471248134993
:1000A000086003C880F30888084703B5996A0420EC
:1000B0000142FBD001200142F8D103BD02B5186610
:1000C0001866FFF7F2FF186E186E02BD00000240BE
:1000D000000000180000070000035F00212200005C
:1000E000F4000018222000A00001001008ED00E03C
:1000F00000000000000000000000000074B24E7A12
:1001000000200420F7010010C3010010C5010010F9
:10011000C1010010C1010010C1010010C101001097
:10012000C1010010C1010010C1010010C701001081
:10013000C1010010C1010010C9010010CB01001065
:10014000CD010010CD010010CD010010CD01001037
:10015000CD010010CD010010CD010010CD01001027
:10016000CD010010CD010010CD010010CD01001017
:10017000CD010010CD010010CD010010CD01001007
:10018000CD010010CD010010CD010010CD010010F7
:10019000CD010010CD010010CD010010CD010010E7
:1001A000CD010010CD010010CD010010CD010010D7
:1001B000CD010010CD010010CD010010CD010010C7
:1001C00000BE00BE00BE00BE00BE00BEEFF3058054
:1001D000103800BEF2EB8871B04D0510DC4D0510F3
:1001E0003402001090A31AE700201F49086006C8D7
:1001F00081F3088810471D48006800282FD10DA4FE
:100200000ECC002902D000F012F8F9E71849194A7B
:10021000002000E001C19142FCD1174988471749ED
:1002200088471749884700BEFDE701C901C29A42C5
:10023000FBD37047DC4D0510C0000020400F0020AC
:100240005C5C051000000420000004205C5C0510CC
:10025000001004200010042000000000704709482E
:1002600003F05CFD0047000008ED00E0000000D056
:10027000600F00208CDB00205D2A0010C1060010FA
:10028000192A00105756000006005250ABB36053B5
:10029000E082011006005250861C0302F082011019
:1002A000060052505422A29DF882011005005250BF
:1002B000DE65F4685C5C0510F8B5C04610B5064C08
:1002C0002378002B07D1054B002B02D0044800E017
:1002D00000BF0123237010BDB810002000000000F3
:1002E000506F0110044B10B5002B03D00349044894
:1002F00000E000BF10BDC04600000000BC100020A0
:10030000506F011030B583B00D001400012825D0C6
:1003100002284BD0002803D0002080B203B030BDAB
:100320002B4B04221A602B4B1B68DB05FBD5294B9A
:1003300058680004000C04F00DFE274904F003FE89
:10034000E621890504F0FFFD04F026FE00900191EE
:10035000224A2100280003F0AFFCDEE71C4B0422F8
:100360001A601C4B1B68DB05FBD51A4B5868000450
:10037000000C04F0EFFD184904F0E5FDE6218905C5
:1003800004F0E1FD164904F0C4FD164904F0C7FD70
:10039000011C154804F0BDFD04F0FEFD0090019124
:1003A0000E4A2100280003F087FCB6E7002011F078
:1003B000FBFA002805D00D4A2100280003F07CFC40
:1003C000ABE70B4A2100280003F076FCA5E7C04606
:1003D00000E0044000C0044033335340506F01102C
:1003E0006ABC343F2D93E13A0000D841546F0110AC
:1003F000586F011010B51C0010680E4916F062FC11
:1004000000280CD124680C49200016F05BFC002861
:1004100007D00A49200016F055FC002805D00848EE
:1004200010BD002111F0B6FAF9E7012111F0B2FA7E
:10043000F5E7C04698BE011030930110948D01106D
:100440005C6F011010B503000C480BE0400801334D
:10045000DBB2072B05D8C207F8D54008084A504040
:10046000F5E723000A000139C9B2002A04D05C1C58
:100470001B7858400023ECE710BDC046FFFF00008A
:1004800001A0000010B50649064807F0E9FC032169
:10049000102000F04FF90321112000F04BF910BD9E
:1004A000A0860100B80E0020F0B5C64600B586B0A3
:1004B00080460F0005AD03232B7000246C700133C0
:1004C000AB702A4E0094033B00225C21300007F001
:1004D000F3FCC8208000002101F08EFB0094032370
:1004E0002A005C21300007F0E7FC2148002101F0E0
:1004F00083FB0094082303AA5C21300007F0E8FC8A
:100500006B46DC7C24029B7CE418062103A8FFF7E1
:1005100099FF844203D006B080BCB846F0BD03AC5E
:10052000A0780002E378C01804F014FD3860114987
:1005300004F0F5FC386025792802FE23DB01184021
:100540006379C01804F006FD434618606DB2002DB3
:1005500005DB084904F0E3FC43461860DBE7064985
:1005600004F0DDFC43461860D5E7C046B80E002015
:10057000DC05000000002041000020C1F8B50C1C83
:1005800004F00AFD0022194B03F061FE0022FF2354
:100590009B0504F0C9FA06000F00201C04F0FCFCC7
:1005A00004000D00124A134B03F06BFE0022124BA5
:1005B00003F048FE02000B003000390003F061FE3A
:1005C00006000F000D4A0E4B2000290003F059FED3
:1005D00002000B003000390003F034FE0022064B0D
:1005E00003F02BFE03F006FFF8BDC04600005940A3
:1005F000CDCCCCCCCCCCEC3F00005C409A99999906
:100600009999B93F10B516F069FA094B02221A60A0
:10061000084B1A688023DB015340E022D2011340CB
:10062000054A136003220549054816F01BFA10BD60
:1006300000E0044000C0044000D00440B80D002099
:100640000503001010B50121014816F02FFA10BD66
:100650006C70011010B511F0C9FA11F07BF902E0CD
:100660000E4804F01FFE0E4B0E4A0F490F4811F0C2
:1006700055FA0028F4D10E4804F014FE16F0E2F901
:100680000C4804F00FFEFFF7BDFF0B4804F00AFE14
:10069000FFF7D8FF094804F005FE10BD6C6F01108C
:1006A0003075000004004000387001104C700110DB
:1006B000886F0110946F0110AC6F0110C46F0110AE
:1006C00010B582B004F02AFEFFF7DCFEFFF7C2FF90
:1006D000694601A8FFF7E8FE01990098FFF74EFF71
:1006E000041C009804F058FC02000B000D4804F0B4
:1006F00009FE019804F050FC02000B000A4804F0C7
:1007000001FE201C04F048FC02000B00074804F026
:10071000F9FD074804F0C6FDFA20C00001F098FA80
:10072000D6E7C046DC6F0110E86F0110F46F0110CE
:100730000470011010B58300084A944663441C6895
:1007400040226240C02414408022520113431C60A6
:10075000C000034B9C466044416010BD04C0014092
:100760000040014080000B4B9C46604400290DD0A6
:100770000823002A0CD004221343026853400C22A1
:100780001340802252011043036070470023F0E7BA
:100790000022F1E704C00140002909D08000094B84
:1007A0009C46604480239B011843022303607047EA
:1007B0008000044B9C466044C0239B0118430223E5
:1007C0000360F4E704C0014070B5D0231B061B682A
:1007D0009D00094C2C59204207D19B002043064C18
:1007E00018510D2000F0F2F970BD044B044ACC21E1
:1007F000044802F015F9C046D8D8002074700110E2
:100800004C710110A070011010B50400D0231B061C
:100810001B689B000A4A9B5818420BD00D2000F021
:10082000EFFAD0231B061B6805499B005A58A243C8
:100830005A5010BD034B044AD621044802F0F0F888
:10084000D8D80020FC70011028710110A070011090
:10085000072303409B00C00899403C308000014BB7
:10086000C150704700400140F8B507000C00160069
:100870001D00FFF7EDFFFB089B00ED180720384037
:1008800080008440002E04D080239B011D432C60F7
:10089000F8BDC0239B011D432C60F9E710B5D023A0
:1008A0001B061B68002B03D0024BFFF7DDFF10BDBA
:1008B000014BFAE7304101400041014010B50123EE
:1008C0008340D0221206936293610521FFF732FF25
:1008D00010BD0000034B1B6802201840431E9841C6
:1008E000C0B2704700C00640EFF3108072B6034BF1
:1008F0001B68002BFBD0BFF35F8F70472C0100D02B
:10090000BFF35F8F024B00221A6080F3108870479C
:100910002C0100D0F8B506000C001500FFF7E4FF2D
:10092000E308F718F15C07222240012393400B42B1
:1009300005D1DBB20B433B70FFF7E2FFF8BD2100AE
:10094000280002F007F9F0B583B006000191140009
:100950001F00FFF7C9FF00E00134BC420CD8E308D8
:10096000F518F35C0721214001228A401A42F3D195
:10097000D2B21A432A7001E001246442FFF7C0FF9B
:10098000002C02DB200003B0F0BD019B002BF9D04E
:10099000089802F0DFF8000070B505000C00FFF7C2
:1009A000A3FFE308EE18EA5C07210C400123A340F3
:1009B000134204D09A433270FFF7A2FF70BD034B7D
:1009C000034A2C31034802F02BF8C0468071011015
:1009D00000720110A0710110002307E0054A9A1867
:1009E0009200BFF35F8F0021116001331F2BF5D9F7
:1009F0007047C04640000034054A1078431CDBB203
:100A00001370172B02D9130010221A707047C046BA
:100A1000C40D002000B583B00100044B00931F23D8
:100A200018220348FFF78FFF03B000BD10720110BA
:100A30005C170020074B9B68103080001950BFF3F3
:100A40005F8FBFF35F8F044B0021196082F3108822
:100A50007047C04600ED00E0240100D01F23181AA3
:100A60007047000010B5091A081F0A4B9C466144E4
:100A7000094A914208D8C30706D440104005400DEA
:100A8000064B184380B210BD054B064AA321064809
:100A900001F0C6FFFC070000FE0F000000E0FFFFB2
:100AA0002C720110B87401105C72011010B5091A93
:100AB00004394C08090B08D14905490D064A114370
:100AC0000180064B2343438010BD054B054AAB21F3
:100AD000054801F0A5FFC04600F0FFFF00F8FFFF4A
:100AE000B87201108C7401105C72011001238340F4
:100AF000034A10681840431E9841C0B27047C04670
:100B000000E100E0002904D0034B1860034B18609B
:100B10007047034B1860FBE780E200E000E100E073
:100B200080E100E010B5012383401800FFF7EAFFE1
:100B300010BD000001238340014A13607047C04686
:100B400000E200E0024B9B6810308000C058704704
:100B500000ED00E010B5FFF7F5FF002805D0054BCC
:100B6000C01A2F2803D8012010BD0020FCE7002068
:100B7000FAE7C046C80D002070B504000D00EFF381
:100B8000108672B60C4B1B68002BFBD0BFF35F8F37
:100B90002000FFF7D7FF094B984201D0A84205D1AA
:100BA000320029002000FFF745FF70BD044B054AC5
:100BB0008621054801F034FF240100D0CD0100104A
:100BC000C8720110EC7401105C720110F0B5DE46C1
:100BD00057464E464546E0B589B08146019115001D
:100BE000EFF3108A72B6744B1B68002BFBD0BFF377
:100BF0005F8F724B0027DF57002F40DB7C00E4192A
:100C0000A4006F4824180622A2566C4B1A706D4B34
:100C10009A684B4610339B00D35898461E001B1A07
:100C20002F2B38D9684B98452FD105AE674B3380B1
:100C30007B009B46D8198000614B984640440230A7
:100C40006349FFF70FFF7080624BB380FF23B371DE
:100C5000F571019B07935F44BF0047440ECE0EC75A
:100C600001231C43A046524641464846FFF7E2FE98
:100C700009B0F0BCBB46B246A946A046F0BD564BF3
:100C8000564AD721564801F0CBFE564B534ADE2137
:100C9000534801F0C5FEC04340440C2103F092F8D4
:100CA000002912D101239E43B34633000026DA798E
:100CB000AA4211D90621595600290CDB4A005218C4
:100CC00092001E003E4B9B18F1E7474B434AEA2136
:100CD000434801F0A5FE1E00002E3AD005AB434A62
:100CE0001A80813A5A800623F3560293002B17DAB2
:100CF0003F4805AB9B469880029A9A71DD71019A34
:100D00000792301D2100FFF7ADFEB080B7717B0068
:100D1000DB199B002A4FFF185B4607CB07C7A2E7EA
:100D20007800C0198000264BC0180430321DB388EB
:100D3000D90A1C2907D15B05591502314900511800
:100D4000FFF790FED5E72B4B2B4AB121244801F049
:100D500067FE05AE1D4B33807B000293D8198000DF
:100D6000174A9046020042440392901C1849FFF72C
:100D700079FE7080039A101D5946FFF773FEB0800C
:100D80001E4B5A464146521A524153431B0DB371F2
:100D9000F571019A0792029B9C466744BF00474445
:100DA0000ECE0EC7114B5A461380813B5380012350
:100DB0001C43A04657E7C046240100D07DDB00203D
:100DC000C80D002000ED00E0CD01001000A1FFFFE4
:100DD000F80D002001BDFFFF00730110D474011055
:100DE0005C7201102873011050730110014800005B
:100DF00001BD0000C4730110C4740110AAAA000050
:100E0000F0B5CE46474680B583B006000D00EFF33F
:100E1000108872B6564B1B68002BFBD0BFF35F8F58
:100E2000544B9A6834001034A300D758524B9F4259
:100E300007D0AF4200D198E00197504BFB1A2F2BFF
:100E400009D9424639003000FFF7F4FD03B0C0BCB9
:100E5000B946B046F0BD3000FFF748FE814600219C
:100E60003000FFF75FFEBFF35F8FEFF305810029CE
:100E700001D08C4211D10123019C9C430022A36824
:100E8000AB4212D00622A256002A0DDB53009B185B
:100E90009B002200394CE418F1E73621384B394ADF
:100EA000FF31394801F0BCFD2200AB4256D1062586
:100EB0006557002D38DB6B005B199A002F4B9B1890
:100EC0009A68A260DA79E27106229A56A2719B7939
:100ED0005BB2002B0FDA2D48A0806B005B199B00E2
:100EE000264AD3182A4A117899711570494630005C
:100EF000FFF718FEA5E7201D6B005B199B001F4A3A
:100F00009B181A1D9B88D90A1C2907D15B055B1504
:100F1000023359005118FFF7A5FDDDE71D4B1E4AAE
:100F2000B121194801F07CFD002912D1002A0ED010
:100F3000FF239371194B9380154A1378A371184BB3
:100F40000E49641A644163431B0D1370CEE70A4FC8
:100F5000F2E7201D1349FFF7A9FDC7E76A21124BED
:100F6000084AFF31084801F05BFD034F69E7C046BE
:100F7000240100D000ED00E0CD010010C80D0020DC
:100F8000DC730110A47401105C72011001BD00003B
:100F90007DDB0020C4730110C474011001BDFFFF8C
:100FA000AAAA0000020E00201074011010B503233D
:100FB00004009C43064A9446644422681840C000DA
:100FC000FC3383409A43130081400B43236010BDE0
:100FD00000E400E070B5012101432E4BCB1A2F2B0A
:100FE00028D8EFF30583002B2BD0EFF3108C72B6CB
:100FF000294A1268002AFBD0BFF35F8F274A0400FA
:10100000244D641B64416243120D54B2244A926819
:101010009B00D2588A421BD00022032A32D85300A8
:101020009B189B001B49CB189B795BB2A3421FD036
:101030000132F2E7C7211B4B1B4A49001B4801F054
:10104000EFFC92211A4B184AFF31184801F0E8FCD6
:10105000134A92681749D150174B1A7882711C7045
:10106000BFF35F8F0C4B00221A608CF3108870BDA9
:101070000D005300991889006918FF268E710F4AD8
:101080008A80E9E7D1210E4B074A4900074801F061
:10109000C7FCC046C80D0020240100D0AAAA000049
:1010A00000ED00E018740110707401105C72011002
:1010B00040740110CD0100107DDB002001BDFFFF59
:1010C0004C7401100022044B02E0044902C30132B7
:1010D000072AFAD97047C04600E400E0808080808B
:1010E00010B5FFF7BBFC01000148FFF755FC10BD30
:1010F00089DB002000B583B00100064B0093052377
:1011000000220548FFF71FFC002801DB1F23181AE7
:1011100003B000BD5474011089DB002070B50400D9
:101120000E001500FFF768FC0100200000F006F833
:10113000A680E580BFF35F8F70BD0000024B9C4628
:1011400061448900016070474000003410B504001C
:10115000FFF752FC01002000FFF7F0FFFF2323718F
:10116000BFF35F8F10BD10B50400FFF745FC010011
:101170002000FFF7E3FFFF23237100236371BFF318
:101180005F8F10BD034B9C46614489000160BFF333
:101190005F8F70474000003410B504000120FFF756
:1011A00039FC01002000FFF7EDFF10BD70B5050010
:1011B0000C00080000F000FF0949200000F040FE8C
:1011C000FFF71AFC074B9C466044800068602C7552
:1011D000D0231B061B786B75A400034BE55070BD34
:1011E000F1140010400000340CC900200A4B1A68AA
:1011F000EFF3108172B61368002BFCD0BFF35F8F42
:10120000054B1B68BFF35F8F00221A6081F31088C3
:1012100040BF002000217047FCDA002010B50029F3
:1012200022D003681B7B99421ED8174B9C46614411
:10123000090183689C4661440C684968002A19D0FA
:1012400003681B7B9A4215D883680F488446624422
:1012500012019A1810685368020001208B4201D8CD
:101260000ED00020C0B210BD084B094A3C210948ED
:1012700001F0D6FB054B064A3C21064801F0D0FBA5
:10128000A242EFD8EDE7C046FFFFFF0F287701101D
:10129000A8790110D476011010B500291ED0037B67
:1012A00099421BD84B005B18033B0468A446634477
:1012B000002919D0002A1DD0914221D0002A25D022
:1012C000047BA24222D804685000801803382018FA
:1012D0008170197800291FD11A7010BD104B114A66
:1012E0006821114801F09CFB104B114A6F310E48E8
:1012F00001F096FB0F4B0E4A70210B4801F090FB5A
:101300000D4B0B4A7121084801F08AFB044B054A3A
:101310006821054801F084FB41701A70DDE7C04682
:101320004C770110147A011068770110D077011002
:10133000F0790110DC770110E877011070B5060034
:101340000D001400002914D0002A14D0806873689E
:101350009847002806D0220029003000FFF79CFFA4
:10136000280007E02A0021003000FFF795FF200049
:1013700000E0100070BD0800FCE70000F0B583B08D
:101380000500009201930AAB1C780BAB1F78002C70
:1013900026D003685A7B944207D10123002B19D130
:1013A000002C3BD1200003B0F0BD002C0CD01A7BE8
:1013B000944209D81A6863001B19033BD3189B7821
:1013C000002BEBD00123E9E73E4B3F4A68213F4821
:1013D00001F026FB3E4B3F4A67213F4801F020FBCE
:1013E00003689C7B002CDBD012D01A7B94420FD870
:1013F00062001219033A19688C4662445178997355
:10140000002900D1D9730023937053701370C7E77C
:101410002C4B2D4A68212D4801F002FB002C3AD0BC
:101420002B681B7B9C4236D82C4BE3181B01AA6807
:1014300094466344009A1A60019A5A60089A9A6026
:10144000099ADA602E68002C2BD030D0337B9C4276
:101450002DD863001B19033B326894466344002275
:101460009A705A701A70717B22003000FFF766FF85
:101470007073844200D095E7287D009A019B00F0AC
:1014800027FD061E01D0002F17D00C9B002B00D18A
:1014900088E71E7086E7124B124A3C210E4801F085
:1014A000BFFA114B114AA521084801F0B9FA054BC2
:1014B000054A6821054801F0B3FA2868210000F0C8
:1014C0003FFFE2E74C770110147A011068770110B2
:1014D00000780110207A0110D4760110FFFFFF0F71
:1014E00028770110A8790110D0760110047A011034
:1014F000F0B5DE4657464E464546E0B58BB00990FE
:10150000002308938200B54BD658370052E0B44B05
:10151000B44A3F21B44801F083FAB44BB44A3C21A9
:10152000B44801F07DFA002901D1002869D10021D9
:10153000404600F0FBFEA04219D12A686B68069273
:101540000793AB689846EB689A464346002B14D045
:10155000002C18D03B681B7B9C4214D8631EFA6891
:10156000D35C08931B0218433861002015E0A24B9E
:10157000A24A8E219F4801F053FAA14B9F4A922123
:101580009C4801F04DFA994B9E4A4121994801F03F
:1015900047FA00239A46984600207B68BFF35F8F86
:1015A00000221A6086F310884346002B32D10028AF
:1015B00000D10CE100F000FC02000B1EA7DB0020B4
:1015C0000021069007917868EFF3108672B60168E3
:1015D0000029FCD0BFF35F8F396888464C7B002C14
:1015E000D7D09AD0097B8C4297D8874965182D01AE
:1015F000B9688C46654428686968801A9941002951
:1016000091DD2A686B68099800F062FC00239A4615
:101610009846C2E7089B1B0223439946514618008F
:10162000C04705000E007A68EFF3108B72B613689E
:1016300059424B41D9B2002BF9D1BFF35F8F002E35
:101640001EDB002E46DD3B69002B47D04B456DD19C
:1016500000F0B2FB02000B1E6EDB52197341002B2F
:1016600070DB002B72DB00210491013103910294A5
:1016700051460191414600913800FFF77FFE4CE052
:101680003B69002BDDD04B4514D1069A079B521BBA
:10169000B341002B14DB002B16DB00210491013138
:1016A0000391029451460191414600913800FFF7A1
:1016B00065FE32E0554B514AA1214E4801F0B0F988
:1016C00001225242524BE6E7454B464A3F214648EB
:1016D00001F0A6F9002E01D1002DB4D13B68002CF9
:1016E00050D05A7B944237D1012100294AD1DA7B6C
:1016F000002A4DD19A7B002A03D1DA7B002A5AD1E5
:101700009C73DC73002C5CD03B681B7B9C4258D8DC
:10171000FA68013C135D0133135500233B617A687D
:10172000BFF35F8F13608BF3108843E7374B334A67
:10173000A421304801F074F9294B2A4A3F212A4854
:1017400001F06EF901225242314B8AE7244B254ABF
:101750003F21254801F064F9002C0DD01A7B9442FA
:101760000AD862001219033A1868844662449278D3
:10177000002ABAD00121B8E7264B274A682127481A
:1017800001F04EF9264B274AF621244801F048F98A
:10179000002A0AD0197B8A4207D851008A18033AD6
:1017A00019688C4662445470A4E71A4B1A4A68219F
:1017B0001A4801F035F91C4B1A4AFB21174801F071
:1017C0002FF90A4B0F4A41210A4801F029F90BB0C1
:1017D000F0BCBB46B246A946A046F0BD0CC90020ED
:1017E0007875011074790110947501102877011033
:1017F000A8790110D4760110287801108C79011095
:1018000040780110CC790110FFFFFF0F4C780110D8
:10181000FFFFFF7F4C770110147A011068770110E9
:1018200088780110E0790110AC78011010B50C4BEC
:101830005B68002B04D00A210A48FFF77FFC10BD2B
:10184000074C2300084A1021206800F07FFC032089
:1018500000F0A6FA03212000FFF7A8FCEBE7C04642
:10186000100E0020FCDA00201D12001010B5064BEF
:101870005B68002B01D0044810BD044B044A5E2174
:10188000044801F0CDF8C046100E0020C0780110C9
:10189000B4790110D4760110F0B5DE4657464E46B5
:1018A0004546E0B58BB0804616001F00149B9A4653
:1018B000159B994616AB1B789B461F2302AA94469C
:1018C000634400221A702BE0002809D042461268B7
:1018D000127B904204D8421E4146C9688A5C41E0AE
:1018E000404B414A4121414801F09AF807984CE0A9
:1018F000361BAF41002F07DB002F11DA3C4B3D4A6E
:101900003F213D4801F08CF8012676423B4FF3E73A
:10191000374B384A3F21384801F082F8002F4FDB1F
:1019200043465A68EFF3108472B6136859424B412C
:10193000D9B20791002BF8D1BFF35F8F1F3302AAF2
:101940009446634404930023039302934B4601930C
:101950005346009332003B004046FFF70FFD031E45
:10196000B2D1020041464968BFF35F8F00250D6088
:1019700084F31088002B29D01F2302A98C466344CE
:101980001B78002BB2D112021043002B20D05B46F3
:10199000002B1DD04946D04704000D0003000B4327
:1019A0001DD00029A4DB00F007FA06000F1EAFDBF4
:1019B00036196F41002FB1DA012676420F4FADE79D
:1019C0000B4B0C4A3F210C4801F02AF80120404201
:1019D0000BB0F0BCBB46B246A946A046F0BD079886
:1019E000F6E7C04628770110CC790110D4760110B3
:1019F000787501107479011094750110FFFFFF7F55
:101A0000F8B50400002900D162E04268EFF31085C8
:101A100072B6136858424341D8B2002BF9D1BFF3D4
:101A20005F8FCBB22268567BB3421BD101200028C6
:101A300048D0206988422BD0090AC9B2002B2ED089
:101A40002068007B83422AD8581EE668305C8842B2
:101A50002BD000206368BFF35F8F00221A6085F3EC
:101A60001088F8BD002B0DD0167BB3420AD85E005B
:101A7000F618033E1768BC466644B678002ED6D0EA
:101A80000120D4E7134B144A6821144800F0C8FF22
:101A90002C21134B134AFF31134800F0C1FF134BA5
:101AA000134A4121104800F0BBFF1900100000F05C
:101AB00047FC0028CED199210E4B0A4A49000A481A
:101AC00000F0AEFF23698B42C4D100232361C1E73C
:101AD0000020C6E74C770110147A011068770110D6
:101AE000E47801105C790110D47601102877011098
:101AF000CC79011008790110407D7047F0B587B0AE
:101B000006000F00EFF30583002B1FD1062464426B
:101B1000E517A4197D418D4202D803D1844201D931
:101B200000240025002D14DB0494059500F044F9F1
:101B300002000B1E13DBA41A9D41002D17DC14D0EC
:101B40003000390000F044F907B0F0BD234801F03F
:101B500001F8234B234A3F21234800F061FF204B2B
:101B6000204A3F21204800F05BFF002CE8D0FFF71F
:101B70007DFE0023029301931C4B0093049A059B66
:101B8000FFF78AFE002818DADAE7002300E00023D6
:101B9000002BD5D1164B1A68EFF3108172B613687B
:101BA000002BFCD0BFF35F8F114B1B68BFF35F8F1F
:101BB00000221A6081F3108820BF0499059A0D4B0A
:101BC0005B6A9A42E3D80B48806A884203D29A4201
:101BD000DBD00123DCE70123DAE7C0460C790110F2
:101BE000787501107479011094750110ED110010D1
:101BF000FCDA00200040054070B504000D0000F044
:101C0000DBF802000B1E0ADB200029008018594176
:101C100000290ADB00290CDBFFF770FF70BD084BC1
:101C2000084A3F21084800F0FBFE012040420749D6
:101C3000F0E7034B034A3F21034800F0F1FEC046A2
:101C4000787501107479011094750110FFFFFF7F02
:101C500010B5FA2292000023002103F03DF9FFF7AE
:101C6000CBFF10BD70B584B005000C00EFF3058309
:101C7000002B1ED1FFF7FAFD002302930193224BA4
:101C800000932A002300FFF707FE061E23DD20BF76
:101C9000FFF7ECFD3100FFF7B3FE1C4B5B6A9C4283
:101CA0002DD81A4A926AAA422CD29C4225D00120F1
:101CB00026E0164B5B6A994209D8144A926A82421E
:101CC00007D2994201D001201AE0002018E000203C
:101CD00016E0012014E00D4B5B6A9C4209D80B4AC8
:101CE000926AAA4207D29C4201D0012008E000205B
:101CF00006E0002004E0012002E0002000E00020D7
:101D000004B070BD0120FBE7ED110010004005405C
:101D100070B5EFF305801038EFF3108C72B61A4BE4
:101D20001B68002BFBD0BFF35F8F012213008340A1
:101D300016494B6316490B60164909780C00C440DC
:101D4000224214D0114A546A8200134D52599442CF
:101D500006D38200114C125999430E4B197007E0BB
:101D60000A4A031D9B0099589950002200E0002266
:101D7000BFF35F8F044B002119608CF31088002A99
:101D800000D0904770BDC046280100D000400540FB
:101D90003C70054088DB002008DB00202415002073
:101DA00010B50100024A0348FEF7B4FD10BDC0465D
:101DB000407A011077DB0020044B5B6A034A906A8B
:101DC0001900536A9942F9D17047C0460040054056
:101DD000084B5B6A01E0074B5B6A8B42FBD301E077
:101DE000044B5B6A8B4203D1024B9B6A8342F7D35D
:101DF0007047C0460040054070B504000D00FFF775
:101E0000DBFF02000B0020002900801859418B42A3
:101E100002D804D1824202D901204042C1170029D0
:101E200002DBFFF7D5FF70BD024B034A3F21034899
:101E300000F0F6FD78750110047B01109475011017
:101E400070B504000D00EFF3108672B61B4B1B68D3
:101E5000002BFBD0BFF35F8F002D1CD02000FEF7BE
:101E600071FE174B83420BD019002000FEF784FE51
:101E700001212000FEF756FE0123A340114A136002
:101E8000A400114BE550BFF35F8F0C4B00221A608A
:101E900086F3108870BDA2000B4B0021D1500122A7
:101EA000A2400A490B7893430B7005492000FEF7C6
:101EB000A7FF00212000FEF735FEE4E7280100D04F
:101EC000111D0010386005402415002088DB00201B
:101ED000F0B5DE4600B584B00400150001921E0086
:101EE0000293FFF769FF03958E4202D84ED18542D7
:101EF0004CD9EFF3108B72B6274B1B68002BFBD02D
:101F0000BFF35F8F254A17780125A540EBB23B430D
:101F10001370234B5D63221D92000199D150A200E2
:101F20002049029850501B6A2B4212D11C4B1B6C4B
:101F30002B4208D00020BFF35F8F174B00221A609E
:101F40008BF3108823E0184B184AC521184800F07D
:101F500067FDFFF731FF8E4214D802D1039B834205
:101F600010D80E4B1B78BB420ED00D4B1D625D632B
:101F70001F2004400123A3400E4A1360074B1F702B
:101F80001E38D8E70020D6E70120D4E7012004B0AE
:101F900080BCBB46F0BDC046280100D088DB0020D5
:101FA0000040054008DB0020647A0110E87A011047
:101FB000887A011080E200E0EFF3108C72B60B4BD0
:101FC0001B68002BFBD0BFF35F8F01238340084ABF
:101FD000136208490A789A430A70BFF35F8F034B74
:101FE00000221A608CF310887047C046280100D088
:101FF0000040054088DB002010B500291ED0037B7F
:1020000099421BD84B005B18033B0468A446634409
:10201000002919D0002A1DD0914221D0002A25D0B4
:10202000047BA24222D8046850008018033820188C
:102030008170197800291FD11A7010BD104B114AF8
:102040006821114800F0ECFC104B114A6F310E482A
:1020500000F0E6FC0F4B0E4A70210B4800F0E0FC4C
:102060000D4B0B4A7121084800F0DAFC044B054A7D
:102070006821054800F0D4FC41701A70DDE7C046C5
:102080004C770110247C011068770110D077011083
:10209000107C0110DC770110E877011070B50600A4
:1020A0000D001400002914D0002A14D08068736831
:1020B0009847002806D0220029003000FFF79CFF37
:1020C000280007E02A0021003000FFF795FF2000DC
:1020D00000E0100070BD0800FCE7000010B5002310
:1020E000437301338373037BC3730123027B9A42DF
:1020F00014D9002B0CD0027B934209D85A00D21875
:10210000033A01688C4662440133DBB25370EDE759
:102110000B4B0C4A68210C4800F082FC002A09D0C5
:10212000924207D8016853009A18033A8A1800238C
:10213000537010BD024B034A6821034800F070FC45
:102140004C770110247C01106877011010B50173E1
:1021500042608360FFF7C2FF10BD000070B504004D
:10216000081E00D170BD002934D0237B994231D89C
:102170004B005B18033B2268944663445A78002A5C
:10218000F0D02DD0237B9A422AD853009B18033BD2
:1021900021688C4663445D7800215970002825D061
:1021A000237B984222D843001B18033B21688C46AE
:1021B00063440021597001002000FFF76FFF060003
:1021C00029002000FFF7CAFF020031002000FFF7BE
:1021D00065FFC7E7084B094A6821094800F020FC61
:1021E000054B064A6821064800F01AFC024B034AD8
:1021F0006821034800F014FC4C770110247C011086
:102200006877011070B505000C00160000292FD06A
:1022100034D0037B994231D84B005B18033B0268F2
:10222000944663445A78002A2ED19A78002A31D1F4
:102230001978FFF793FF0300002E0AD0EA7B002AEB
:102240002ED1AA7B002A03D1EA7B002A3BD1AC73B2
:10225000EC73002B3DD1002C4FD02B7B9C424CD8F3
:102260002B6861000C19033C1C190023637070BDBE
:10227000254B264A3821264800F0D2FB254B264A1A
:102280006821264800F0CCFB254B204A3A21204803
:1022900000F0C6FB234B1D4A3B211D4800F0C0FB4C
:1022A000002A0AD0297B8A4207D851008A18033AAB
:1022B00029688C4662445470C3E7164B164A68215D
:1022C000164800F0ADFB184B104A4221104800F0B0
:1022D000A7FB002B0BD02A7B934208D843001B1886
:1022E000033B2A689446634400229A70B3E7094B83
:1022F000094A6821094800F093FB064B064A682109
:10230000064800F08DFBC0461C7B0110FC7B0110D1
:10231000247B01104C770110247C01106877011098
:10232000787B0110A07B0110AC78011070B504001F
:102330000A00457B2900FFF765FF6073280070BD28
:1023400070B50400002967D0437B8B420ED0002972
:1023500011D0037B99420ED84B005B18033B0268F7
:10236000D0188378002B0CD1002056E00121FFF714
:10237000DDFF012051E0294B294A6821294800F05E
:102380004FFB002B20D0227B93421DD85A00D3183C
:10239000033B2268D2182568EB5C8B421AD0002BD5
:1023A0001BD0227B934218D85A00D318033B2268D3
:1023B000D21853788B4216D0002BF0D11A4B1B4AFF
:1023C0006B211B4800F02CFB144B154A6821154863
:1023D00000F026FB4378137007E0104B104A682189
:1023E000104800F01DFB4378537000238370437046
:1023F00001222000FFF706FF0200617B814205D029
:102400002000FFF74BFE6073012006E0094B074AEE
:102410007121074800F004FB002070BD4C770110CB
:10242000247C0110687701104C740110E47B0110CA
:10243000247B0110C47B011070B5046BE30701D449
:10244000200070BD02003032C0239B0113430A4AB2
:102450001A60456A826AAD01AD18AD02062000F02F
:10246000BDF9064901F0AEFC0100280001F0AAFC0C
:102470000021FFF7C1FCE3E7010300004E0E00005E
:1024800070B504000E001500FFF7D6FF22002C32B5
:10249000E16A4E40354080235B0113431D60206399
:1024A00070BD000070B505000C00062000F096F924
:1024B000C000210001F086FCC60908D00E4B9E42E8
:1024C00016D87F23184001303400460800E001246C
:1024D0006C62AE62002200212800FFF7D1FF0620C7
:1024E00000F07CF98000A101891901F06BFC70BD3E
:1024F0000026024CECE7C046FEFF0000FFFF000094
:1025000010B505394901013AD2001143002B09D019
:1025100002220A43012B07D0002111436E22FFF74C
:10252000AFFF10BD0022F4E70421F6E7002909D02F
:102530000A22064B9C466044434258414000044BEB
:10254000C252704780225200F3E7C0460080FCBFB1
:102550003CDB002070B505000C00062000F03EF9C1
:10256000061E27D0164B9D4226D08022D203154B43
:102570001A60154B1A60154B9B6811009943FAD1EC
:1025800000212800FFF7D2FF21002800FFF78AFF73
:1025900006000023012208212800FFF7B1FF2A00CE
:1025A0002C3280239B01134310221A60084B2B63AB
:1025B0000323AB64300070BD80221204D7E7C0460D
:1025C0000080034000E0004000F0004000C00040F8
:1025D00001030000F8B5DE4657464E464546E0B5D5
:1025E00005000F0092460A9A934250D31A0E914664
:1025F0001E020A9A00233000494601F021FC804661
:102600006C006419A400304B9C46644463688342A8
:1026100000D260602B1FDBB29B46012B3DD9C0234B
:102620009B012343802212011A60AB00274A99586C
:10263000002907D0506901F0C5FB431C5800C018A1
:102640000338FDD253465A0123685A40E0231A400A
:1026500080235B0123431A605A46012A28D980232C
:102660009B012343802212011A6043466360424665
:1026700000233000494601F0E3FBAD00134B5851F5
:102680000120F0BCBB46B246A946A046F8BD104B9F
:10269000104A3321104800F0C3F9012FBFD1C023E5
:1026A0009B01234303221A60A368DB07FCD5C9E71B
:1026B0002168794003220A401A60A2680123BB40C6
:1026C0001342FAD0CBE7C0460080004060170020DC
:1026D000307C0110A47C0110447C011030B583B023
:1026E0000C2000F011F9FEF7F5F800280DD00023BA
:1026F00004E099002D4A2E4888500133092BF8D95F
:102700002A4B2C4A5A6203B030BD2B4B00229A67E9
:1027100000F06CF9294B01221A60274B5B6C012BEE
:10272000FBD1274B03221A60234B9B6B012BFBD160
:10273000013300930433234A0121234800F054F865
:1027400005230093214A0121214800F04DF8214B37
:102750000093002202210420FFF73CFF1E4D00954C
:102760002B00002201210520FFF734FF104C0094BC
:102770002300002200210720FFF72CFF00942300F4
:10278000002200210820FFF725FF0A4B00932300B9
:10279000002200210920FFF71DFF00952B000022D9
:1027A00000210620FFF716FFADE7C04660170020A6
:1027B000006CDC021BB70000008000403CB0004011
:1027C00030B00040002F685900800240008C8647DE
:1027D00000C00240001BB700405973078000014B46
:1027E000C058704760170020F0B5C64600B5040019
:1027F0000E0017001D00374801F0E4FA8046364B02
:10280000FA18364B9A4239D80100380001F0DAFA4A
:102810000200103A98235B009A4235D86B1E062BB3
:1028200038D8069B013B062B34D83F09474537D3A0
:102830002D04069B1A0315432368002B36DB284B17
:102840009C4244D080225201264B1A60264B1A60CB
:10285000264B9B6811009943FAD12660A060231D86
:10286000C02292011A43212313602368002BFCDA53
:10287000E5600823136080BCB846F0BD1C4B1D4AC0
:1028800011211D4800F0CCF81C4B1A4A19211A4896
:1028900000F0C6F81A4B174A1C21174800F0C0F880
:1028A000184B144A2321144800F0BAF822683F2339
:1028B0001340B342C3D1A3681B051B0D8342BED195
:1028C000E368EE22D2021340AB42B8D1D3E78022B4
:1028D0009201B9E7001BB70080E84BD380F8A9321A
:1028E00000C0024000E0004000F0004000C0004096
:1028F000B47C0110F47D0110147D0110707D011075
:102900008C7D0110D87D011080239B000343014A78
:10291000D362704700800540024B1A68024B5A6030
:102920007047C046F42E00200080054010B502001C
:10293000164B8020C0051860154B164818600029FA
:102940000AD0154BE021C9041960002A09D1124BA5
:10295000802212061A6010BD0C4BE021C9041960D8
:10296000F3E753019B1A9800801800010B4B186085
:1029700080235B04984202D3084B094A1A60FFF790
:10298000CBFF054B8022D2051A60E4E700B005407A
:1029900008200140FCFF010000A00540F42E0020AB
:1029A000FFFFFF0010B5030010000C4A8024E4056F
:1029B0001460002B0DD001221343094A094CD46145
:1029C000094C5C401462516293620021FFF7AEFF34
:1029D00010BD034B0022DA61F7E7C04600B00540A6
:1029E00000800540D3C007B02D3FF84F064BAA2208
:1029F00012011A602F22DA60044B054A1A60024B5A
:102A00005B68002BFBDA7047004002400060024028
:102A100000B0FA0000BEFDE710B5FFF7FBFF0000B5
:102A200010B582B00C001900002A0CD0084B002A07
:102A30000BD00192009323000200064802F062FCD2
:102A40000120FFF7E7FF044BF1E7034AF1E7C04637
:102A5000007E0110107E01103C4C051070B52B4B10
:102A60002B4A1A602B4B2C4A1A602C4B9A682A4B23
:102A70009343FAD12A4C01E008CC9847294B9C4259
:102A8000FAD3FFF72BFE234B274A1A60234B9B6890
:102A9000DB43DB01FAD1254B40229A675A671A675C
:102AA000DA66234C09E0234B234A87212348FFF7AA
:102AB000B7FF2000FEF74AFB0834214B9C4209D2A5
:102AC0002368002BF5D0012BEDD12000FEF74BFB46
:102AD0000834F2E71B4CA1681B4DC022280002F00D
:102AE000B9FAA560EFF30583002B00D000BEFDF717
:102AF00073FFFEF7E7FAFEF799FE144C01E008CCED
:102B00009847134B9C42FAD370BDC04600E000408A
:102B1000BFCDFBFE00F00040FE7F3C0000C0004047
:102B2000280F0020380F0020FFFFFF0100F00140B8
:102B3000200F0020407E0110E07E0110607E011019
:102B4000280F002000ED00E000000020380F0020DA
:102B5000400F00200FB400B583B0084802F0A2FB7C
:102B6000049B002B07D005A90191180002F0AAFBD5
:102B7000034802F097FB0120FFF74CFFC07E0110D5
:102B80000434051010B50148FFF7E4FFD07E0110B2
:102B90009A4200D288547047704710B5002802D07E
:102BA0000B684968984710BD0100002007E08300CA
:102BB0001B185B00501C08601078C01830380A6879
:102BC0001378303BDBB2092BF1D97047F0B5DE4604
:102BD00057464E464546E0B583B093461F000C9BD2
:102BE0009A460D9C0E9B99460F9B9B0703D0B846B7
:102BF0000F00060022E00192A34688464E46B946E1
:102C00000700B44207D2551C4B4641462020B84726
:102C100001342A00F5E73D004F465C46019B9B4688
:102C2000B1464646B84637002E0007E0013C551C29
:102C30005346185D43463900B0472A00002CF5D1B1
:102C400035003E0047460F9B9B0707D4100003B09A
:102C5000F0BCBB46B246A946A046F0BDB0464E46C3
:102C6000B9462F005D46531BB342EFD2541C4B466E
:102C700041462020B8472200F5E7F0B5CE4647464A
:102C800080B585B0944698460C9D0D9C0EAB1B7884
:102C90009946109A119B129EB7071CD4002B0CD09A
:102CA000F7070AD54F46002F02D10C37374204D020
:102CB000013B02E030272F550134944201D21F2CF2
:102CC000F8D9F70707D59C4205D21F2C03D8302727
:102CD0002F550134F5E7F70615D5770505D4002CF7
:102CE00003D0944224D09C4222D00F9A102A2BD099
:102CF0000F9A102A30D00F9A022A35D01F2C02D8F2
:102D000030222A5501341F2C05D84A46002A31D0DA
:102D10002D222A55013403960293019400954346CF
:102D20006246FFF753FF05B0C0BCB946B046F0BDE0
:102D3000621E012C06D00F9F102F01D01400D4E783
:102D4000023CD2E71400D0E7B206D1D41F2CCFD872
:102D500078222A550134D1E7B206CCD51F2CCAD827
:102D600058222A550134C9E71F2CC7D860322A558A
:102D70000134C3E7720703D52B222A550134CAE771
:102D80003207C8D520222A550134C4E7F0B5DE4603
:102D900057464E464546E0B593B081468A4608926E
:102DA00009931CAB10CB1B789B461E9D219B98461C
:102DB000002C03D1102342469A4390468023DB0027
:102DC00046461E4042461A4212D0002C22D000260F
:102DD0000EE03033D9B2771C0AAB99552900200098
:102DE00000F0F0FFAC4216D31F2F14D83E000400B1
:102DF0002900200000F0E6FFCBB2092BE9D94246BA
:102E0000920605D54121C918C9B20A39C9B2E2E70B
:102E10006121F8E7270043460693209B05931F9BFB
:102E2000049303955B46029301970AAB0093099BB9
:102E3000089A51464846FFF720FF13B0F0BCBB4646
:102E4000B246A946A046F0BDF0B5DE4657464E460E
:102E50004546E0B595B0089009910A920B931E9EE5
:102E60001F9C20AB1B789B46229B9946239D269B4B
:102E70009A463300234303D1103352469A43924675
:102E80008023DB0057461F4052461A4219D03300B8
:102E900023432DD0002714E03033DAB27B1C984650
:102EA0000CABDA554A462B003000210000F0C8FF79
:102EB000A5421FD819D043461F2B1BD847460600F2
:102EC0000C004A462B003000210000F0B9FFD3B2BD
:102ED000092BE1D95246920605D54122D218D2B229
:102EE0000A3AD2B2DAE76122F8E7B145E3D901E064
:102EF0000023984653460693259B0593249B0493F1
:102F00004B4603935B460293434601930CAB0093FD
:102F10000B9B0A9A09990898FFF7AFFE15B0F0BC11
:102F2000BB46B246A946A046F0BD0000F0B5DE465D
:102F300057464E464546E0B591B083468A460C92C8
:102F400098461A9C08941B9D099522002B0020008E
:102F5000290001F0F8F9002800D0E5E001225242F2
:102F6000D74B2000290001F0E9F9002800D0DBE070
:102F700001225242D34B2000290001F0C9F9002858
:102F800000D0D1E000220023089E3000099D2900D6
:102F900001F0BEF9002800D0DDE0089809990690FC
:102FA00007918023DB001E9A1A400D921E9A1A4246
:102FB00001D106231C930698079904000D000A000E
:102FC0000600024300D1D1E0080D4005400DBE4C83
:102FD000A44660440A03120BBC4B13431F0001F0CC
:102FE000C5F9BB4ABB4B01F04CF9BB4ABB4B01F0E6
:102FF00029F904000D000022B94B3000390001F01E
:103000001CF9B84AB84B01F03CF902000B00200053
:10301000290001F017F901F0C1F9814601F0A6F984
:1030200004000D00B14AB24B01F02BF90022B14B64
:1030300001F008F901F0B2F90600AF4AAF4B2000E9
:10304000290001F01EF904000D00300001F08EF996
:10305000AB4AAC4B01F015F902000B00200029002F
:1030600001F0EBF804000D0002000B0001F009F97B
:103070000A900B91A44BF31800261F0522002B0089
:103080002000290001F0DEF80E900F9122002B00A5
:1030900000208021C90501F0D0F804000D000022B5
:1030A0009A4B0A980B9901F0D2F80022984B01F044
:1030B000C9F802000B000A980B9901F0C8F8002229
:1030C000944B01F0BFF802000B000A980B9901F035
:1030D000BEF802000B002000290001F0B3F8020046
:1030E0000B000E980F9901F0B2F80022774B01F017
:1030F000A9F832003B0001F0C4F806000F000400FC
:103100000D00069A079B01F019F9002830D0012321
:103110005B429C46E14400227D4B3000390001F0C7
:1031200096F804000D0023E01E9B04931D9B03935F
:103130001C9B0293089A099B0092019343460C9AA8
:103140005146584600F0FCF811B0F0BCBB46B24600
:10315000A946A046F0BD00230024069307940696D6
:1031600080231B069C46654407951AE70023994671
:103170004B466333C62B1ED804261E9B1B0526D543
:103180002B0023430FD0644A644B0698079901F043
:10319000CDF8002879D00022614B0698079901F0FC
:1031A000B7F8002871D01C9B4B4506DD4A46981A9B
:1031B000431E1C9303E00526DFE700231C938023B6
:1031C000DB001E9A1A431E920026002399461D9B7F
:1031D0009E4264D29F1B02231E9A1A400A921E9A94
:1031E000134202D0002E00D000274B46002B07D000
:1031F00022002B000698079901F029F80690079104
:10320000002200230898099901F082F8002848D18B
:10321000444B1E9A1340049303971C9B0293069BF6
:10322000079C0093019443460C9A5146584600F07F
:1032300087F8002E00D187E71E9B9B063DD54525CC
:10324000441C4346020051462800D8474B46DA1733
:103250009B18534005220592013E049600220392DA
:103260000A3202924A46D00F019000934346220050
:1032700051465846FFF78AFD0A9B002B00D163E7B1
:1032800002005F460C9E1D9D54E01C9B002B9ED0AF
:103290000D9B002B9BD01C9B013B1C9397E70027A9
:1032A00099E7069C079D220029008020000684469D
:1032B00061440B0006920793AAE76525C0E7C04664
:1032C000FFFFEF7FFFFFEFFF01FCFFFF0000F03F7C
:1032D000FB799F501344D33FB3C8608B288AC63F05
:1032E0000000F83F61436F63A787D23F71A379095C
:1032F0004F930A400000E03F1655B5BBB16B02404A
:10330000EF39FAFE422EE63FFF03000000002C409A
:1033100000002440000018402D431CEBE2361A3F09
:1033200080842E41FFF7FFFF541C43465146202066
:10333000B8472200931BAB42F6D3100004E7C04607
:10334000F0B5DE4657464E464546E0B595B0069088
:10335000079193469946209F1E9A1F9B10001900C3
:1033600000F0F1FF002831D101225242BF4B1E98DC
:103370001F9900F0CDFF002837D101225242BC4BEB
:103380001E981F9900F0DAFF00283DD10022B94BAA
:103390001E981F9900F0D2FF002850D10022B64B92
:1033A0001E981F9900F0B4FF002848D10022002386
:1033B0001E981F9900F0ACFF002850D100239846BA
:1033C000229B5B0500D4B6E0002458E0229B0393C7
:1033D000219B029303230193A84B00934B465A462B
:1033E00007990698FFF7F2FB0EE1229B0393219BBE
:1033F000029304230193A24B00934B465A4607992C
:103400000698FFF7E3FBFFE00423229A1A40229973
:103410000B4210D09B4B002A0FD00422229903911B
:1034200021990291019200934B465A4607990698BA
:10343000FFF7CCFBE8E0944BEDE70322EEE7229B9D
:103440000493219B039302971E9B1F9C009301945E
:103450004B465A4607990698FFF768FDD4E01E9A36
:103460001F9B0020002100F0E8FE1E901F91012309
:103470009846A5E70CAB30221A55013F01341F2CAA
:1034800001D8092FF6D81E981F9900F087FF050074
:1034900000F06CFF02000B001E981F9900F0CDFE9B
:1034A000FA007A4B9B181A685B680A920B9300F03B
:1034B000E8FE0890099100F095FF060000F052FF29
:1034C00002000B000898099900F0B7FE08900991D6
:1034D00000226F4B00F032FF00282ED00136300062
:1034E00000F040FF02000B000A980B9900F016FF55
:1034F000002801D001350026002F2CD1280000F033
:1035000035FF02000B001E981F9900F096FE060082
:103510000F0000225E4B00F0FBFE002846D1002287
:103520005B4B3000390000F009FF00283ED1EB076B
:103530003CD501353AE0062746E70022544B08986F
:10354000099900F0E5FE0028D6D1002E01D0F3073E
:10355000D2D50136D0E7AA461F2C11D8013F0A2147
:10356000300000F02FFC651C30310CAB19550A21DE
:10357000300000F027FC092E0ED906002C00EBE7E6
:1035800055461F2C0CD87B1E002F09D00CAA3021C9
:1035900011551F000134F4E72B0055461C00F0E7DD
:1035A0001F2C03D80CAB2E221A5501341F2C10D817
:1035B0000A21280000F0DEFB661C30310CAB1955E7
:1035C0000A21280000F0D6FB051E01D03400EDE7EB
:1035D00034000323229A1340012B1CD01F2C06D841
:1035E0004346002B32D00CAB2D221A550134229BBE
:1035F0000393219B029301940CAB00934B465A46D4
:1036000007990698FFF7E2FA15B0F0BCBB46B24640
:10361000A946A046F0BD219B002B13D04346002BAA
:1036200002D10C3313420FD0219B013B219319008F
:1036300003E00CAB30221A5501348C42CED21F2C41
:10364000F7D9CBE72199F8E72199F6E7229B5B07A9
:1036500004D50CAB2B221A550134C8E7229B1B075B
:10366000C5D50CAB20221A550134C0E7FFFFEFFF90
:10367000FFFFEF7F65CDCD4165CDCDC1FC7E011053
:10368000007F0110F47E0110F07E0110E88001102F
:103690000000E03FF0B5DE4657464E464546E0B5F1
:1036A00093B082468B4690461193002900D1EBE2FD
:1036B00000275546119B1878002800D1E7E22528FD
:1036C00009D07C1C43463A005946A847119B013358
:1036D00011932700EEE7013311930024119A11781A
:1036E0000B00203BD8B2102803D88300D048C35821
:1036F0009F460B00303BDBB2092B2CD92A292FD057
:1037000000230A93119B1A782E2A39D000239A4657
:10371000119A1378683BD9B2122976D88B00C54923
:10372000CB589F4601231C4301321192D6E7022356
:103730001C4301321192D1E704231C430132119240
:10374000CCE708231C4301321192C7E710231C4326
:1037500001321192C2E711A8FFF726FA0A90D1E7C9
:103760001C9B1A1D1C921868002804DB0A90119BF0
:1037700001331193C6E702231C4343420A93F6E741
:103780008022D20014435A1C11925A781300303B05
:10379000DBB2092B04D92A2A07D000239A46B7E7BF
:1037A00011A8FFF701FA8246B2E71C9B1A1D1C9272
:1037B0001868002804DB8246119B01331193A7E7A8
:1037C0000020F8E780235B002343511C11915278BD
:1037D0006C2A01D01C0018E0C0239B001C4301315F
:1037E000119112E080232343511C11915278682AD1
:1037F00001D01C0009E0C0231C430131119104E0F9
:1038000080235B001C4301321192119B1878030046
:10381000253BDAB2532A00D92CE29300864AD358CA
:103820009F4680239B001C4301321192EDE78023C9
:103830005B001C4301321192E7E7782809D0582831
:1038400038D06F2838D0622838D010239C430A26FD
:1038500000E01026582833D0692803D0642801D00E
:103860000C229443630501D50122944369282AD090
:10387000642828D0A30500D59FE0E30500D5B8E073
:10388000630600D4CAE01C9A111D1C911168FF2226
:103890000A4005940A9B049353460393029600231F
:1038A0000193009243463A0059462800FFF76EFA0A
:1038B000070027E01026CDE70826CBE70226C9E758
:1038C00020221443C8E7A30520D4E30550D463069F
:1038D00066D51C9A111D1C911168FF220A40D3174E
:1038E000D118594005940A9B0493534603930296BA
:1038F000D20F0192009143463A0059462800FFF743
:1039000045FA0700119B01331193D3E61C9BDA1D86
:1039100007218A43110008311C91116853689C46A5
:10392000DB170C930D930C9A0D9B100048400E90E2
:10393000624653400F930E980F990C9A0D9B801A74
:1039400099410E900F9108940A9B07935346069352
:103950000496002305936346DA0F029200900191CA
:1039600043463A0059462800FFF76EFA0700C9E7B8
:103970001C9A111D1C911268D317D1185940059437
:103980000A9B0493534603930296D20F019200912F
:1039900043463A0059462800FFF7F8F90700B1E717
:1039A000230605D51C9A111D1C910023D25E96E7B3
:1039B0001C9A111D1C91126891E71C9BDA1D0721AE
:1039C0008A43110008311C9108940A9B07935346BF
:1039D000069304960023059302931368546800939A
:1039E000019443463A0059462800FFF72DFA070094
:1039F00088E71C9A111D1C9105940A9B0493534659
:103A000003930296002301931368009343463A0000
:103A100059462800FFF7BAF9070073E723060DD5CA
:103A20001C9A111D1C9112681204120C31E7C04639
:103A3000087F01104C7F0110987F01101C9A111D06
:103A40001C91126825E746281AD01C9B07330722D1
:103A500093431A0008321C9204940A9A0392524625
:103A600002925C681B680093019443463A005946F1
:103A70002800FFF765FC0700119B0133119319E63D
:103A800020231C43E1E7672801D0472802D1802387
:103A90001B011C43452801D0472801D120231C438A
:103AA0001C9B0733072293431A0008321C9204948C
:103AB0000A9A0392524602925C681B680093019432
:103AC00043463A0059462800FFF730FA0700119B99
:103AD00001331193EEE502231A002240924623425D
:103AE0001FD001241C9B1A1D1C927A1C9146187829
:103AF00043463A005946A8475346002B16D1119B1E
:103B0000013311934F46D5E5561C434659462020B4
:103B1000B847230032005C1C9D42F5D83D001700D9
:103B2000E0E701233A002F000A9DF4E74A46A94640
:103B30000A9D06E0571C434659462020C8473400DA
:103B40003A00661CA542F5D84D469146D7E71C9B26
:103B50001A1D1C921B6899465346002B00D1013B4D
:103B60004E4601E0013613003278002A02D05A1E78
:103B7000002BF7D14B46F21A10928023DB0026006F
:103B80001E401C4203D0524501D9534610930223D4
:103B90001A0022400B92234205D03A0037004C46CF
:103BA000A946554620E03A00109B5F46B3462E00DA
:103BB00006E0551C434639002020B04723002A0068
:103BC0005C1C0A999942F4D835005E46BB461094B5
:103BD00037004C46A946554606E01D000134561CE8
:103BE00043465946C84732002078002804D0002FA9
:103BF000F4D06B1E002DF0D117004D460B9B002B0F
:103C000003D1119B0133119354E50A9F109B06E0E9
:103C1000561C434659462020A847230032005C1C0E
:103C20009F42F5D81700ECE721231C431C9B1A1D6B
:103C30001C921B6800930594082304935346039336
:103C4000102302930023019343463A00594628006B
:103C5000FFF79CF80700119B013311932AE57C1CA8
:103C600043463A0059462520A847119B013311933A
:103C700027001FE57C1C43463A005946A847119B84
:103C800001331193270015E50A4B9A4610E5AA4621
:103C9000474502D343465A1E00E03A004346594680
:103CA0000020D047380013B0F0BCBB46B246A9464E
:103CB000A046F0BD992B00100CB410B584B00A00DA
:103CC00006AC08CC0394009401000448FFF7E2FC22
:103CD00004B010BC08BC02B01847C046912B0010BD
:103CE00000B585B0029003910121009313004A4270
:103CF00002A90248FFF7CEFC05B000BD9B2B0010C7
:103D000001480421014B1847400E00203D3D0010A2
:103D1000014B9B6818470000400E002010B50100C1
:103D200018231B8814221088984710BD10B5010075
:103D300018231B8816221088984710BDF0B5C64678
:103D400000B507000E0000250123984600E001356C
:103D5000B5420AD2AC003C192068FFF7DFFF2060B3
:103D60000028F4D100239846F1E7404680BCB846CD
:103D7000F0BD0000124A936F9B0815D29066D16681
:103D8000002905D0FFE7FFE7FFE7516F106F70478D
:103D900004B580210906C2175140002800D0C8434D
:103DA00013F06EF8002104BDF0B5146E556E576F18
:103DB000166FFFF7E3FF1466556657671667F0BD89
:103DC000000000D0114A936F9B0813D21066516611
:103DD000002905D0FFE7FFE7FFE7516F106F70473D
:103DE00004B5002801D00020C04313F049F8002199
:103DF00004BDC046F0B5146E556E576F166FFFF7D1
:103E0000E5FF1466556657671667F0BD000000D0E1
:103E100094464A4A926F9208624601D228E0C04610
:103E2000F0B5464E346E756E776F366F00F020F841
:103E30009446424A14665566576716676246F0BD57
:103E400094463E4A926F9208624601D254E0C046C0
:103E5000F0B53A4E346E756E776F366F00F04CF8F1
:103E60009446364A14665566576716676246F0BD33
:103E7000002B24DB11D000293EDA00B5C9434042B3
:103E800000D1013100F038F8C943404200D101317E
:103E9000DB43524200D1013300BD002AEBD10028A0
:103EA00001D1002905D00020C90FC90701D1C043A5
:103EB000410800B512F0CCFF0022002300BD00B580
:103EC00000290ADBDB43524200D1013300F014F831
:103ED000C943404200D1013100BDC943404200D135
:103EE0000131DB43524200D1013300F005F8DB43DE
:103EF000524200D1013300BD002923D1002B18D13B
:103F0000002A0CD0BC460D4F38667A66002100238B
:103F1000FFE7FFE7FFE77A6F386F674670470028D3
:103F200001D00748010000B512F092FF00220023E3
:103F300000BD02000B00002000217047000000D0EF
:103F4000FFFFFFFF002B00D0BFE0130C28D1002A99
:103F5000E7D080B4114F39667A66FFE7FFE730B4E7
:103F6000040C7B6F396F1B0423433B667A66FFE7C3
:103F7000FFE7FFE7C04684B27B6F3D6F1B0423431E
:103F80003B667A66FFE7FFE7C04600232C042D0C52
:103F90007A6F386F00196941B0BC7047000000D0DB
:103FA000F0B594460025140E01D112020835140F05
:103FB00001D112010435940F01D192000235D40FC2
:103FC00001D152000135D40B0134254F7C66254CBC
:103FD0003C660E0C93B2FFE7FFE7FFE73C6F6643DA
:103FE000360C7703BE467343DF0B5B04C01AB9413E
:103FF000130C7343DB18C91ACE086643360CB6445B
:1040000093B273431F0F1B01C01AB941130C7343C2
:104010001F0B1B05C01AB941860D8F023E43664334
:10402000360C092D24DB520A7243801A7703460AA4
:104030006643360C16235B1BDE40DF40BF19644627
:104040006643821B7046043506330100D940A84000
:10405000C01900D30131A24206D20023F0BD0000F6
:10406000000000D0FFFFFFFF121B0130F3D3F1E788
:1040700009277F1BFE406446A2B27243801A00D219
:104080000139220C7243130C1204821A99410B005D
:104090007046043513370100F940A840801900D359
:1040A0000131002B02D1A2420AD2F0BD013000D36F
:1040B0000131121BFAD2013BF8D1A24200D2F0BD6D
:1040C000013000D30131121BF7E7F0B51C0C00D012
:1040D00080E00CB400251C0A04D11B02160E3343E9
:1040E000120208351C0B04D11B01160F33431201B9
:1040F00004359C0B04D19B00960F3343920002358C
:10410000DC0B02D192185B4101351C009718644109
:104110000134464F7C66464C3C660E0CFFE7FFE7D9
:10412000FFE7C0463C6F6643360C7703BE4697B246
:104130007743C01B00D20139C01B00D201399FB2A6
:104140007743C91BC91B170C77437E04FF0B801BE9
:10415000B941CE086643360C0C2D33DBB644120B46
:104160001F053A431B0B97B27743C01B00D201399E
:104170009FB27743C91B170C77433E043F0C801B4B
:10418000B941860D8F023E43664329277F1BFE40BF
:104190000C3D7746AF40BF1930BCA2B2ABB2724300
:1041A0007343801A9941220C7243130C1204801A33
:1041B000994102000B000137001BA941F9D2781E7A
:1041C0000021F0BD0C277F1BFE4077467F0BAF40E0
:1041D000FF19E0E700245D1C07D0144F7D663966A7
:1041E000FFE7FFE7FFE7FFE73C6F95B29EB265434D
:1041F0006643401BB141150C1E0C654366433604F3
:104200002F0C3E432D04401BB141994204D20200C1
:104210000B0020000021F0BD01D19042F7D3801A9D
:10422000994101349942F2D3F6E70000000000D032
:10423000FFFFFFFF48404140484018B4134B5B6804
:10424000019308BD18B4114B1B68019308BD944637
:104250000F4A926F920805D2624618B40B4BDB6886
:10426000019308BD0A4AF0B5146E556E576F166F6C
:104270006246FFF7F2FF064A1466556657671667EF
:10428000F0BD18B4014B9B68019308BDF4D8002021
:10429000000000D0FFB550404240504059404B40D4
:1042A000594000E0FFB5154F4C00640D03D0BC42EF
:1042B00004D10C0314D80020090D09055C00640D1D
:1042C00003D0BC4204D11C030AD800221B0D1B05DD
:1042D00001264B4009D44B4003D58B4200D182428A
:1042E000FFBD9942FCD19042FFBD0B43DB18034355
:1042F0001343F5D0C9434918FFBD0000FF07000074
:1043000000B5FFF7CFFF01D0002000BD012000BDA8
:1043100000B5FFF7C7FF804100BDC04600B5FFF7FD
:10432000C1FF01D9002000BD012000BD00B5FFF78D
:10433000B1FF01D9002000BD012000BD00B5FFF78D
:10434000A9FF804100BD012040054A00121804D891
:104350005A00121801D80020704701207047002031
:10436000704700000021002805D17047C117484060
:10437000401AFAD0C90713B5064B1B6898470CBC06
:10438000441CA2401005120B0349091B09051943DF
:10439000114310BDF8D900201F04000010B54C00D7
:1043A000620D8023D218DB00D21A5B057E2A10DD55
:1043B0009E3A13DACC170903490819435242D140F7
:1043C000640001341532202A05DAD04008436043E6
:1043D00010BD002010BD0846604310BDC80FC018B6
:1043E000013810BD18B4024B5B6A019308BD000090
:1043F000F4D8002018B4024BDB6F019308BD000015
:10440000F4D8002018B4024BDB6C019308BD000007
:10441000F4D8002018B4024B1B6D019308BD0000B6
:10442000F4D8002010B50148FEF794FB3881011044
:1044300070B513231C78012C14D0012C14DC022C31
:1044400002DC1F4A1F4B9A641F48FFF767FC1F4B93
:10445000186070BD99001E481A4A885001331F2BFE
:10446000F8D9EAE70023FAE71A48FFF75FFC0500EE
:104470001948FFF75BFC023803789B007F2B19DD9E
:10448000802229000F4800F0E5FD022CD7D1134B04
:104490001A88B5231B029A4209D1114B1A88114B75
:1044A0009A4204D1104B1A88104B9A42C7D0002070
:1044B000FEF750FB0E4B0F4A32210F48FEF7B0FAC1
:1044C000A54E0010F4D800204C330000F8D900208D
:1044D00025440010534400005346000054380000A7
:1044E000D8380000494600009C38000059460000BA
:1044F0005081011008820110A481011070B50400E0
:104500000D001600012A0ED0D20F92195210FFF79B
:10451000F5FF02000B00FFF7B4FEF30703D52200FE
:104520002B00FFF7AEFE70BDF0B5D6464F464646AF
:10453000C0B588B014001D000E0D7605760D974BA2
:104540009846B044964B9B1B009001910F0D7F0540
:1045500014D0944FBE4211D0991900290ADD924817
:1045600081423ADD019BDB0FDB0700208F4A1A43B3
:10457000110003E00020019BDB0FD907FFF74AFF82
:104580008B4A8C4BFFF763FE00228B4B009001910E
:10459000FFF7D4FE00280AD00022884B009801992A
:1045A000FFF74BFE00900191854B9846B04443467F
:1045B000002B1BD00022834B20002900FFF7B6FE02
:1045C00000281FD04346002B19DB0020774908B094
:1045D000E0BCBA46B146A846F0BD00201905009AD5
:1045E000019B12184B4110001900C7E722002B0055
:1045F00000980199FFF745FE00F030FAE7E7002048
:104600000021E4E70022704B20002900FFF786FE1E
:10461000002808D04346002B02DB00200021D6E70B
:1046200000206249D3E72000290000F0C9F9060004
:104630000F0002000B0020002900FFF7FEFD029092
:1046400003911A2200F094F900F0BAF904000D0069
:1046500002000B00090D4905480D002913D05149EE
:10466000884210D01A3800280ADD4F49884200DC01
:1046700084E0EB0FDB0700244C4A1A43150002E0EC
:104680000024EB0FDD0722002B0002980399FFF7AF
:10469000D4FD0690079130003900FFF77FFE814678
:1046A000030041464B439A464046FFF75FFE220017
:1046B0002B0004900591FFF7E4FD06000F0000F0C9
:1046C0007FF904000D00FFF769FE8046D044220008
:1046D0002B0030003900FFF7B0FD04000D00069AF2
:1046E000079B04980599FFF7CCFD02000B00200002
:1046F0002900FFF7A7FD049005914846FFF736FE15
:10470000009A019BFFF7BDFD04000D0000F058F971
:1047100006000F00FFF742FE804432003B002000FD
:104720002900FFF78AFD049A059BFFF78BFD040023
:104730000D00029A039B00980199FFF7A2FD220049
:104740002B00FFF77FFD00F089F904000D000B0D31
:104750005B055A0D002B00D139E7124B9A4200D16C
:1047600035E74244002A0EDD0F4B9A420FDDCB0F96
:10477000DB0700200D4A1A43110028E70024134DDF
:10478000A4185D417FE70020CB0FD9071FE7002069
:10479000434619050019694119E7C04601FCFFFFAE
:1047A000FF030000FF070000FE0700000000F07F8D
:1047B000EF39FAFE422EE63F0000E03F0000F03FF6
:1047C00002FCFFFF0000B0400000B0C0000060FE2F
:1047D000F0B5D64600B582B001900E0000921D00E3
:1047E00003000C00CA0F9246002955DA2A0D520523
:1047F000520D584952183ED434218A1A3DD45439A6
:10480000501825D41F318140012040429040009E25
:10481000864330002E008E43310001432FD1342ACD
:104820002FD0203951181CD42A00CA4001210A4037
:10483000002A28D0180080263606A119009A2B00DD
:10484000FFF7C6FF8B19190002B080BCBA46F0BD55
:104850002020801A012149420E00C6409140314378
:10486000D2E72021891A2800884001000098D04012
:1048700002000A43DAE70022DAE70022D8E7002242
:10488000D6E70122D4E7180080231B06E118009A1E
:104890002B00FFF79DFFD7E700982900FFF77EFD6B
:1048A0000700019A310D4905480D002907D02A4912
:1048B000884213D033031B0B13435842584100283E
:1048C0000ED1002F43D03B002033402B2DD9009A2E
:1048D0002B0001983100FFF727FEB5E75046EEE7C1
:1048E000200D4005400D1B4B9C46604480231B015E
:1048F0009F4204DA194B9F4202DA184F00E0164F2C
:104900007843174BC318002B09DD164A934209DC84
:1049100000260705002014498019794194E70020FA
:10492000002191E7002011498EE7002F05DB3A00B6
:1049300001983100FFF7E2FD86E7019A330000207D
:104940000949FFF784FC01900E007F42EFE7002049
:10495000054979E701FCFFFFFF07000000F8FFFFB2
:10496000FF030000FE0700000000F03F0000F07FA2
:1049700030B50B0D5B055C0D002B14D00D4B9C422C
:1049800011D01419002C09DD0B4B9C420CDDC90F12
:10499000C907002409480843050002E00024C90FA4
:1049A000CD072000290030BD0024150524184D41F5
:1049B000F7E7C046FF070000FE0700000000F07F99
:1049C00070B50B0D5B055B0D224A944663445A1C7F
:1049D00026DB5A1C2AD03422D21A002A1FDD3324A7
:1049E000E41A20235B42E51827D40126AE403300A9
:1049F0000125A5402A0012184B4120214942651883
:104A000021D40226AE4031000225A5402800002511
:104A100044428D411600264030002B40190070BDE5
:104A20000022C90FCB0710001900F8E7CB0FDB07F6
:104A30000020094A1A431100F1E720252D1B012609
:104A4000EE403300D4E720252D1B0226EE40310036
:104A5000DAE7C04601FCFFFF0000F03F70B505003B
:104A60000C000A0D284B9A4247D00022274B280001
:104A70002100FFF753FC002842D10022244B2800DC
:104A80002100FFF753FC002802D00020214939E023
:104A900028002100FFF794FFFFF780FC0600FFF7D6
:104AA00065FC02000B0028002100FFF7C6FB1A4A34
:104AB0001A4BFFF7E6FBFFF7A5FC04000D000B0DFA
:104AC0005B055A0D002B1DD0154B9A421AD0B21817
:104AD000002A09DD134B9A420ADDCB0FDB070020C9
:104AE0000C4A1A4311000DE00020CB0FD90709E052
:104AF000002031050019694104E00020002101E097
:104B00000020002170BDC046FF0F00000000B0C0B3
:104B10000000B0400000F07FEF39FAFE422EE63F81
:104B2000FF070000FE070000F0B583B0050000900D
:104B30000C0001921F000022B44B28002100FFF757
:104B4000DFFB002841D13E0D73055D0D002B3CD0ED
:104B50000022AF4B00982100FFF7D2FB002803D0C2
:104B6000AC4B9D4200D181E1220D5305590D002B24
:104B700000D081E0FA0F002F3FDB3B0D5B055B0DA2
:104B8000A5495B181CD43421CB1A19D454395818B0
:104B900021D41F318140012040429840019D85432E
:104BA00028003D008D432900014309D1342B22D038
:104BB000202252429A1817D4D7403A0001231A40B3
:104BC000002A00D155E1009D01E000258F4C28000E
:104BD000210003B0F0BD2020C01A012149420D0080
:104BE000C54099402943D6E72022D21A9740019A1E
:104BF000DA403A43E2E70122E2E73B0D5B055B0D59
:104C0000854A9B181BD43422D31A18D4543A9818C6
:104C100020D41F328240012040429840019D8543AC
:104C200028003D0095432A00024308D1342B21D0AF
:104C3000203A9A1817D43900D1400123194000298D
:104C400000D119E1E40FE407002274492143150063
:104C50000C00BCE72020C01A012252421500C540BA
:104C60009A402A43D7E72022D21A97400199D94087
:104C70003943E2E70121E2E7664B9A422CD0684BC8
:104C80009A422FD0634B9E4200D1A9E0644B9E42D2
:104C900000D1ABE03B0D5B055A0D002B00D1C5E008
:104CA0005D4BD21800D5C9E034239A1A002A00DCE3
:104CB000C6E0543BD11800D59EE01F338B40012144
:104CC00049429140019A8A43390099430B001343AA
:104CD00000D0B7E00133AAE0002F00DBCFE00025D1
:104CE000002474E7FA0F002F3ADB3B0D5B055B0DE8
:104CF00049495B181CD43421CB1A19D4543958189B
:104D00001CD41F318140012040429840019C8443C3
:104D100020003C008C432100014309D1342B1DD0DD
:104D2000202252429A1812D4D7403A0001231A4046
:104D3000002A00D1A6E000253A4C48E72020C01AFE
:104D4000012149420C00C44099402143DBE7202265
:104D5000D21A9740019ADA403A43E7E70122E7E79F
:104D60003B0D5B055B0D2C4A9B1831D43422D31AC2
:104D700030D4543A99181AD41F328A40012149423A
:104D800099400198884301003800904302000A438B
:104D900022D1342B22D0203A9A1811D4D7400126A0
:104DA0003740002F71D00025802424060FE72021F2
:104DB000C91A012252421000C8409A400243DDE75E
:104DC0002022D21A97403A00019FDF401743E6E7BE
:104DD0000027E6E70027E4E70027E2E70127E0E70E
:104DE000114B994254DC00250024F0E60E4B994209
:104DF00051DC0025094CEAE62021891A01235B4297
:104E00001800C8409340034359E7C0460000F03FF4
:104E10000000F0BFFF07000001FCFFFF0000F07F73
:104E2000FF0F00000000F0FFFE0300000123002B35
:104E30000AD1002C11DA0025184CC8E60023F6E749
:104E40000123F4E70023F2E7019A3B0000982100D8
:104E5000FFF7BEFC05000C00B9E6019A3B00009884
:104E60002100FFF761FB05000C00B0E600250C4CAB
:104E7000ADE600250024AAE60025084CA7E600259B
:104E8000064CA4E60025054CA1E6002500249EE67C
:104E90000025024C9BE60025002498E60000F07FE8
:104EA0000000F03F07B56046002800D100BE018831
:104EB0000A0A0230DF2AFAD1C9B2820804D3028872
:104EC00040880004104300E00068024A50500390FC
:104ED00007BD0000F4D8002051434343C9188C4655
:104EE000110C83B24B4310B4040C614392B280B2F4
:104EF000504362431C041B0C001910BC594113049D
:104F0000120CC018514161447047000048404140B4
:104F100048400E4B5B6818470C4B1B6818470C4AFF
:104F2000936F9B0802D2094BDB681847F0B5146EEB
:104F3000556E576F166FFFF7F6FF054A14665566F4
:104F400057671667F0BD014B9B681847FCD90020D6
:104F5000000000D0C10FC90700D54042002817D07B
:104F6000F44603B40B4B1B68984706BC81409E383F
:104F70004042803107D20B0607D04900490AC005DC
:104F80001043084360470130F8E7490A8902F5E712
:104F900070470000F8D90020014BDB6F1847000074
:104FA000FCD9002010B50148FDF7D4FD3C4C05109C
:104FB00070B513231E781848FEF7B8FE0500012EC1
:104FC00011D0012E09DDAB1E1B789B007F2B1DDD50
:104FD00080222900114800F03DF81148FEF79EFE9E
:104FE000104B186070BD542201000C4800F032F8DC
:104FF000002300E001331F2BE3D89A00074C12591D
:10500000002AF7D19A0008481051F3E7074B084AE5
:1050100042210848FDF704FD53460000FCD900205A
:105020004C330000F8D90020A54F00101C8201105D
:10503000B48201105082011001480421014B18472D
:10504000500E00203D3D0010014B1B68184700002A
:10505000500E0020014B5B6818470000500E0020E6
:1050600010B50300080011001B68984710BD000030
:10507000F8B507000D001600437D002B02D0002478
:1050800000200CE003681100280098472DE03B7DCC
:1050900010E0022115483B689847601C0134B44277
:1050A00014DA002CF3DD2B19013B1B780D3B5A421F
:1050B0005341DBB22A5D0A2AF0D1002BEED1A04287
:1050C000E7DA211A28183B689847E2E7B04203DA8A
:1050D000311A28183B689847002E06DDAD19013DAE
:1050E0002B780D3B5A4253413B75F8BD408301106C
:1050F00070B505000368002B16D00C4B1C6805E04A
:10510000290004C92000FFF7B3FF2469002C09D04F
:105110002368002BF9D0064B1B68002BF0D0A3426C
:10512000F3D1EDE700232B6070BDC0466026002060
:105130006826002070B505000C000B68802B05D098
:1051400021684B1C23606418257170BD0800FFF7AF
:10515000CFFFF5E710B5FCF72FFE02000B1E0BDBAF
:105160000D48002112184B41002B0BDB002B0DDBEF
:105170000A4811F0ADFE10BD094B0A4A3F210A480A
:10518000FDF74EFC01225242084BEFE7044B054A63
:105190003F210548FDF744FC40420F00200F00204E
:1051A000787501102883011094750110FFFFFF7FAF
:1051B00010B5024811F044FE10BDC046200F00207B
:1051C000F0B5CE46474680B583B006000D00904648
:1051D0001C00FFF7BFFF81466B1C05D0002C08D0D8
:1051E000194F1A4B1C6807E0300011F0AFFD0500A5
:1051F000F4E7174FF5E72469002C17D02368002B3C
:10520000F9D0144B1B68002B01D0A342F3D12A0024
:1052100031002000B8474346002BECD06B46D91D27
:105220000A230B7001222000B847E4E74B46002B0D
:1052300007D16B1E9D41E8B203B0C0BCB946B04671
:10524000F0BDFFF7B5FFF4E76150001060260020C5
:105250007150001068260020094A01E010331A003E
:105260001368002B08D08342F8D1002907D10369C5
:1052700013600023036102E0002900D01060704732
:105280006026002010B5064B1C6801E09847246991
:10529000002C03D06368002BF8D1F8E710BDC0469E
:1052A0006026002070B5050011F050FD04000023B9
:1052B000012201002800FFF783FFFFF7E3FF200032
:1052C00070BD000070B5A2B004000E00FFF742FFF1
:1052D0000500002301933300220001A90848FEF7CE
:1052E000FFFC040001A8FFF703FFFFF7CBFF002D31
:1052F00002D1200022B070BDFFF75AFFF9E7C04687
:10530000355100100FB400B583B004A901C9019153
:10531000FFF7D8FF03B008BC04B0184710B500F081
:10532000FBF800F043FA012010BD0000F0B583B097
:1053300005000E0000240FE06B46D91D0D230B70F5
:105340000020002816D193699B06FCD40B781360CB
:1053500001300131F5E70134B44219DA0D4B1A6816
:105360002F5D0D4BD31859424B415B000B495B5EDF
:10537000BB42E1D06B46D91D0F7000200028EAD156
:1053800093699B06FCD40B78136001300131F5E77B
:1053900003B0F0BD40DB00200080FCBF3CDB002000
:1053A000F0B583B006000F00002504E06B4607331C
:1053B0001B782B702500BD4215DA174B1A689369CC
:1053C0001024210019401C420DD16C1C75196B462C
:1053D000D81D0029EAD19369DB06FCD41368037059
:1053E00001310130F5E70D4B1B68002B0CD00A4B47
:1053F0001A685023936311003431536B38221A40DA
:1054000080235B010B431A60002D02D0280003B0FB
:10541000F0BD033DFAE7C04640DB00204C170020FA
:1054200010B5064B1B68002B06D0054A12680021F8
:105430009163044A1068984710BDC0464C1700207D
:1054400040DB00205417002070B504000E001C4BF8
:105450001B681C4A98184242504114300500002C29
:1054600003D0194A1268002A06D0002C19D0164B16
:105470001C60164B1E6070BD1549FBF77DFB0121BA
:105480002800FBF74FFB0E4B1A6850239363110063
:105490003431536B38221A4080235B010B431A606E
:1054A000E5E7094A1268002AE1D000229A63002148
:1054B0002800FBF737FB06492800FBF7A1FCD6E7DD
:1054C00040DB00200080FCBF4C1700205417002058
:1054D0002154001070B50D001C000D4B1860002AFF
:1054E0000BDA002C0EDA0A4B18682900FDF732F8A7
:1054F00001210848FFF7B0FE70BD02211000FBF744
:1055000019F9EEE702212000FBF714F9EBE7C0469A
:1055100040DB0020600E002010B5064B1B78064BC8
:105520001B78E1210123002249020448FFF7D2FF42
:1055300010BDC046D04D0510D44D051000400340AD
:1055400070470000014B00221A7070477EDB00207C
:105550004B79FF2B0CD18B79002B0BD1CB79012B05
:105560000AD1082A0AD98A78054B1A70092000E066
:10557000002070470020FCE70020FAE70020F8E751
:105580007EDB00200120704770B504000D00034849
:10559000FEF7C4FB03002900200098475542000095
:1055A00010B5012926D1117953791B020B431249F9
:1055B00009788B4201D000201DE05378012B03D0E5
:1055C000022B10D0002016E09178D3781B021943EB
:1055D000DB0506D54B0A012098407F231940FFF7D1
:1055E000D3FF0020F9E7642200210020FDF7DAF95B
:1055F000012000E0012010BD7EDB002001230370AC
:10560000004870478483011010B50B784878000279
:1056100018438A7812041043CB781B060343962262
:10562000D200934200D010BD00210800FFF7ACFF6C
:10563000024B1860024B19607047C046501700209B
:105640005817002010B5024B1878FBF773FA10BDFD
:105650007FDB002070B5134B1B68002B1DD0114B56
:105660001968EFF3108372B60A68002AFCD0BFF302
:105670005F8F0C494B6000220B4802700968BFF332
:105680005F8F0A6083F3108800240025074B187889
:10569000FBF750FA2000290070BDFA24A400002571
:1056A000F4E7C04604C9002081DB00207FDB002036
:1056B00010B584B000212D4811F0F2FB00283AD13A
:1056C0002B4B1B68002B3ED0294B1968EFF310823F
:1056D00072B60B68002BFCD0BFF35F8F24494A6081
:1056E0002448037801246340DBB201240470096874
:1056F000BFF35F8F0020086082F31088002B22D058
:10570000FCF7B4F80400FCF757FB02000B1E1CDB8F
:10571000FA208000002112184B41002B1BDB002BCC
:105720001DDB01210291002101911349009120000C
:10573000FCF7B2F807E001200021404201F0F8F840
:105740000A4811F07DFB04B010BD0C4B0C4A3F2100
:105750000C48FDF765F9012252420B4BDFE7074B7E
:10576000074A3F210748FDF75BF9C04600DB0020F0
:1057700004C9002081DB0020555600107875011007
:105780003084011094750110FFFFFF7F10B5054BA9
:105790001868002804D0044B1968002200F0EEFDC0
:1057A00010BDC046501700205817002010B584B017
:1057B000D0231B061C68FCF759F8FCF79DF9A042A2
:1057C0002AD1324B1B7801F09BFD3148FBF7BEFC20
:1057D0000120FBF78FFCC0B22E4C20702E49FBF746
:1057E000CBF920780121FBF79DF90520FBF7B2F9F1
:1057F000041E17D0002229490520FBF7E7F9FBF723
:10580000FBF801002648FBF7BDFC01212548FFF706
:1058100023FD200004B010BD234B244AB2212448AC
:10582000FDF7FEF8FCF722F80400FCF7C5FA0200C9
:105830000B1E1BDBFA208000002112184B41002BAD
:105840001ADB002B1CDB0121029100210191194977
:1058500000912000FCF720F8C443E40F0822002147
:105860000F48FFF7F1FB002CD3D0CEE7124B134AC1
:105870003F211348FDF7D4F801225242114BE0E7D3
:105880000D4B0E4A3F210E48FDF7CAF8D84D0510C2
:1058900000DB00207FDB0020B156001045560010D1
:1058A00004C90020780E002010740110208401101B
:1058B0009C8301105556001078750110308401103A
:1058C00094750110FFFFFF7F10B5002001F038FA3A
:1058D00010BD000070B505000C00FFF7F5FF0028B3
:1058E00045D0002001F04EFA002843D0FCF764FABE
:1058F00002000B1E21DB2248002112184B41002B15
:1059000021DB002B23DB1F4811F0E2FA002834D002
:10591000FFF7DAFF002804D0002001F033FA002856
:105920001BD101200021404201F002F8032464420F
:10593000144811F085FA200070BD134B134A3F2123
:105940001348FDF76DF801225242124BD9E70E4B76
:105950000E4A3F210E48FDF763F82200290000207F
:1059600001F01CFA041EE3D103246442E0E703249F
:105970006442E0E703246442DDE703246442DAE79B
:1059800040420F0000DB00207875011030840110C8
:1059900094750110FFFFFF7FF0B5C64600B5804645
:1059A0000C00FCF709FA02000B1E0FDB3748002140
:1059B00012184B41002B0FDB002B11DB344811F088
:1059C00087FA002812D180BCB846F0BD314B324A6C
:1059D0003F213248FDF724F801225242304BEBE7D9
:1059E0002C4B2D4A3F212D48FDF71AF8FFF76CFF8D
:1059F000002849D12B4B0020002118605960244811
:105A000011F01EFADFE701200021404200F090FF74
:105A1000002001F0D7F9FFF757FF0028EFD0002052
:105A200001F048FA002820D0A542E8DA661B0020E1
:105A300001F040FA0200864200DC3200002AE2D087
:105A400043465919002001F019FA060001200021EF
:105A5000404200F06DFF002001F0B4F9AD19FCF7F1
:105A6000ABF9104B18605960DEE7FCF7A5F90D4B58
:105A70001E685F680C4A002392197B419942BED888
:105A8000D2D19042D0D9BAE70025CDE740420F00ED
:105A900000DB00207875011030840110947501102E
:105AA000FFFFFF7FA810002020A1070000487047DB
:105AB000C8840110004870477484011010B50400B8
:105AC000154B1B78002B0ED0002C11D1134B144A10
:105AD0005A80012301335B001BB2C02292001343A2
