:020000041000EA
:1000000000B5324B212058609868022188439860DF
:10001000D860186158612E4B002199600221596106
:100020000121F02299502B49196001219960352056
:1000300000F044F80222904214D00621196600F024
:1000400034F8196E01211966002018661A6600F04E
:100050002CF8196E196E196E052000F02FF8012189
:100060000842F9D1002199601B49196000215960AB
:100070001A491B48016001219960EB211966A021F2
:10008000196600F012F800219960164914480160C1
:100090000121996001BC002800D000471248134993
:1000A000086003C880F30888084703B5996A0420EC
:1000B0000142FBD001200142F8D103BD02B5186610
:1000C0001866FFF7F2FF186E186E02BD00000240BE
:1000D000000000180000070000035F00212200005C
:1000E000F4000018222000A00001001008ED00E03C
:1000F00000000000000000000000000074B24E7A12
:1001000000200420F7010010C3010010C5010010F9
:10011000C1010010C1010010C1010010C101001097
:10012000C1010010C1010010C1010010C701001081
:10013000C1010010C1010010C9010010CB01001065
:10014000CD010010CD010010CD010010CD01001037
:10015000CD010010CD010010CD010010CD01001027
:10016000CD010010CD010010CD010010CD01001017
:10017000CD010010CD010010CD010010CD01001007
:10018000CD010010CD010010CD010010CD010010F7
:10019000CD010010CD010010CD010010CD010010E7
:1001A000CD010010CD010010CD010010CD010010D7
:1001B000CD010010CD010010CD010010CD010010C7
:1001C00000BE00BE00BE00BE00BE00BEEFF3058054
:1001D000103800BEF2EB887174820510A082051001
:1001E0003402001090A31AE700201F49086006C8D7
:1001F00081F3088810471D48006800282FD10DA4FE
:100200000ECC002902D000F012F8F9E71849194A7B
:10021000002000E001C19142FCD1174988471749ED
:1002200088471749884700BEFDE701C901C29A42C5
:10023000FBD37047A0820510C0000020A817002043
:1002400088990510000004200000042088990510FA
:10025000001004200010042000000000704709482E
:1002600005F00CF80047000008ED00E0000000D0A9
:10027000C8170020E4E50020F93E0010ED10001042
:10028000B53E00105756000006005250ABB3605305
:10029000F0A4011006005250861C030200A50110B4
:1002A000060052505422A29D10A501100500525084
:1002B000DE65F46888990510F8B5C04610B5064C9F
:1002C0002378002B07D1054B002B02D0044800E017
:1002D00000BF0123237010BD28190020000000007A
:1002E000188E0110044B10B5002B03D003490448AD
:1002F00000E000BF10BDC046000000002C19002027
:10030000188E0110030000091B011843C0B28210AF
:100310003323134080003322904340B20343DBB2C7
:100320005A10552002405B0055218B4358B21043B0
:10033000C0B2704710B5002406E0064B185DFFF709
:10034000E1FF054B18550134A0235B009C42F4D318
:1003500010BDC0461891011000E20020F8B505005C
:100360000E0017001C00214B1B78002B21D0782E8B
:100370003ADC182F38DCF91707220A40D219D210BC
:100380001B4B195D03230B40022B15D0E4B2230055
:10039000413BDBB2192B11D92300303BDBB2092BD7
:1003A00011D9252C13D02E2C13D0F82C0DD00024CD
:1003B00005E0FFF7BFFFDAE7203CE7E7403CD1016B
:1003C000891900230EE0153CF9E7D13CF7E7252415
:1003D000F5E72624F3E7E200D2180448825C6A5469
:1003E00001330131072BF6DDF8BDC04600E20020E5
:1003F00071810510F8B507000C0016001D00782962
:100400000DDC182A08DD0AE0013532002100380031
:10041000FFF7A4FF083424B22B78002BF4D1F8BDE9
:1004200010B51C001068124918F046FA002809D1CE
:1004300024681049200018F03FFA002804D10E4B20
:1004400000221A700D4810BD0D49200018F034FA32
:10045000002803D1084B01221A70F3E70949200054
:1004600018F02AFA0028EDD1034B02221A70E9E7AE
:10047000C08E011048B50110E1E50020C88E0110C2
:10048000ACAF011040AC011010B51C001068184949
:1004900018F012FA00280AD124681649200018F032
:1004A0000BFA002805D1144BFA2252001A601348A7
:1004B00010BD1349200018F0FFF9002803D10E4B9E
:1004C000104A1A60F3E71049200018F0F5F90028E7
:1004D00003D1094B0D4A1A60E9E70D49200018F0D5
:1004E000EBF90028E3D1044B0A4A1A60DFE7C04663
:1004F000D88E011048B50110F4E10020C88E01101B
:10050000ACAF0110B80B000040AC01107017000038
:100510005CE1011060EA000010B51C0010680E4993
:1005200018F0CAF900280CD124680C49200018F0F2
:10053000C3F9002807D00A49200018F0BDF90028A7
:1005400005D0084810BD002112F01EFDF9E7012179
:1005500012F01AFDF5E7C046B0E0011048B50110F1
:10056000ACAF0110C88E011010B503000C480BE0B1
:1005700040080133DBB2072B05D8C207F8D5400885
:10058000084A5040F5E723000A000139C9B2002AA1
:1005900004D05C1C1B7858400023ECE710BDC0461B
:1005A000FFFF000001A0000010B51849184808F02E
:1005B00051FF03211A2001F0EFFA03211B2001F063
:1005C000EBFA122001F0ACFBD02424068023DB02DE
:1005D000A36200220121122001F0F6FA102001F09E
:1005E0009FFB80235B02A36200220121102001F007
:1005F000EBFA152001F094FB80239B03A3620022F9
:100600000121152001F0E0FA10BDC046A0860100CE
:10061000E00E0020F0B5C64600B586B006000C001E
:10062000002A09D1384B1B680360384B1B680B60EC
:1006300006B080BCB846F0BD05AF03233B70002573
:100640007D700133BB70324B984600950123002228
:100650005C21404608F02AFFC8208000002102F0FB
:10066000FDFD009503233A005C21404608F01EFF83
:100670002848002102F0F2FD0095082303AA5C211E
:10068000404608F01FFF6B46DD7C2D029B7CED1879
:10069000062103A8FFF768FF8542C9D103ADA878FA
:1006A0000002EB78C01805F039FF20601A4905F008
:1006B000E6FE206005F054FF184A194B05F091F84A
:1006C000184A194B05F06EF805F044F920602F79AF
:1006D0003802FE23DB0118406B79C01805F01EFFBD
:1006E00030607FB2002F0ADB0B4905F0C8FE306096
:1006F0003268054B1A602268044B1A6098E70B4970
:1007000005F0BDFE3060F3E78CE50020C833002023
:10071000E00E0020DC05000000002041AE47E17A39
:1007200014AEEF3FF6285C8FC2F5F83F000020C101
:10073000F8B5041C081C05F013FF0022184B05F047
:1007400036F80022FF239B0505F09EFC06000F00F3
:10075000201C05F005FF04000D00124A124B05F0A5
:1007600040F80022114B05F01DF802000B0030008C
:10077000390005F036F806000F000D4A0D4B200039
:10078000290005F02EF802000B003000390005F0BA
:1007900009F80022054B05F000F805F0DBF8F8BD7C
:1007A00000005940CDCCCCCCCCCCEC3F00005C4020
:1007B0009A9999999999B93FF8B5DE4657464E46A8
:1007C0004546E0B504000E1C151C062B1AD89B00EC
:1007D000424AD3589F46424B1868F0BCBB46B246CB
:1007E000A946A046F8BD3E4B5868F6E73C4B186951
:1007F000F3E73B4B9868F0E7394BD868EDE7384BA7
:100800005869EAE7364B220083CA83C383CA83C38D
:1008100083CA83C3324BD969301C05F02DFE834651
:100820002F4AD061116A281C05F026FE81462C4A09
:10083000106293699846180005F070FE8246011C0C
:10084000584605F01CFE264B18615146484605F0F7
:1008500016FE234B586143460133214A9361022B14
:100860002DD01F4B1868311C05F04CFE002801D01C
:100870001B4B1E601A4B5868311C05F049FE0028BE
:1008800001D0174B5E60164B9868291C05F03AFEA4
:10089000002801D0124B9D60114BD868291C05F02F
:1008A00037FE002801D00E4BDD600D4B220013CB2C
:1008B00013C213CB13C213CB13C200208DE7130056
:1008C000166056609560D560220013CB13C213CB1F
:1008D00013C213CB13C200207FE7C046E48E011081
:1008E000042A002010B5022913D003291CD00129A5
:1008F00002D0432313700BE0462313700C4905F01C
:10090000D2FD0C4905F0BBFD8421C90505F0B4FDFD
:1009100010BD4B23137005F023FE074A074B04F06C
:1009200041FF05F017F8F3E743231370F0E7C046E3
:10093000000010410000A0406666666666127140C5
:10094000F0B585B00C0015000B2800D99FE18000A0
:10095000D04A13589F46D04E00223100CF48FFF7AF
:1009600059FE306805F0FCFD00900191CC4A290049
:10097000200004F051FC80B205B0F0BDC74E00224B
:10098000C5493000FFF746FE0F276F44C54B197865
:1009900030683A00FFF7A6FF05F0E2FD00900191F4
:1009A000C14A2900200004F037FC06003B784B2B9D
:1009B0000CD1200017F0C4FF0F236B441B782018C4
:1009C000BA4A290004F028FC8019D4E7200017F067
:1009D000B7FF2018B64BB74A290004F01DFC3618A3
:1009E000E7E7002012F0DAFA002805D0B24A290021
:1009F000200004F011FCBEE7B04A2900200004F0FA
:100A00000BFCB8E7A44FA54E002239003000FFF7D9
:100A100001FE39683068FFF78BFEA94B18600F277D
:100A20006F44A04B19783A00FFF75CFF05F098FD82
:100A3000009001919C4A2900200004F0EDFB060083
:100A40003B784B2B0CD1200017F07AFF0F236B441F
:100A50001B782018954A290004F0DEFB80198AE7EC
:100A6000200017F06DFF2018914B924A290004F0E6
:100A7000D3FB3618E7E7884B1A68884B19680123BF
:100A80009048FFF799FE0F276F44864B19783A007C
:100A9000FFF728FF05F064FD00900191824A2900CC
:100AA000200004F0B9FB06003B784B2B0CD1200052
:100AB00017F046FF0F236B441B7820187B4A290050
:100AC00004F0AAFB801956E7200017F039FF201820
:100AD000774B784A290004F09FFB3618E7E76E4B06
:100AE0001A686E4B196802237648FFF765FE0F27D8
:100AF0006F446C4B19783A00FFF7F4FE05F030FDB7
:100B000000900191684A2900200004F085FB06004E
:100B10003B784B2B0CD1200017F012FF0F236B44B6
:100B20001B782018614A290004F076FB801922E71F
:100B3000200017F005FF20185D4B5E4A290004F0E5
:100B40006BFB3618E7E7544B1A68544B19680323BC
:100B50005C48FFF731FE0F276F44524B19783A007B
:100B6000FFF7C0FE05F0FCFC009001914E4A290001
:100B7000200004F051FB06003B784B2B0CD12000E9
:100B800017F0DEFE0F236B441B782018474A29001C
:100B900004F042FB8019EEE6200017F0D1FE201889
:100BA000434B444A290004F037FB3618E7E73A4B39
:100BB0001A683A4B196804234248FFF7FDFD05F017
:100BC000CFFC00900191364A2900200004F024FB5C
:100BD000D1E6314B1A68314B196805233948FFF7C4
:100BE000EBFD05F0BDFC009001912D4A290020008D
:100BF00004F012FBBFE6284B1A68284B196806233D
:100C00003048FFF7D9FD05F0ABFC00900191244A74
:100C10002900200004F000FBADE60F276F44214BB4
:100C20001978294B18683A00FFF75CFE05F098FC2C
:100C3000009001911C4A2900200004F0EDFA060002
:100C40003B784B2B0CD1200017F07AFE0F236B441E
:100C50001B782018154A290004F0DEFA80198AE66C
:100C6000200017F06DFE2018114B104A290004F0E7
:100C7000D3FA3618E7E7154B186805F071FC0090B9
:100C80000191134A2900200004F0C6FA73E60020FF
:100C900071E6C0462C8F0110C433002088E5002087
:100CA000008F0110E1E5002024900110188F011041
:100CB0000C8F0110148F01101C8F0110208F011058
:100CC000902A0020E029002090E50020682F0020D5
:100CD000248F011010B5D0231B065A68920C0123F3
:100CE0001340284A12789A4215D1D0231B065A681D
:100CF000120C01231340244A12789A421BD1D023AC
:100D00001B065A68520D01231340204A12789A425A
:100D100021D100200EE0D02424066268920C012329
:100D20001340184A13700A2002F0C4F963685B0389
:100D300021D4002010BDD02424066268120C0123A7
:100D40001340114A13700A2002F0B4F96368DB0300
:100D500013D40020EEE7D02424066268520D01234C
:100D600013400A4A13700A2002F0A4F963689B0238
:100D700005D40020DEE70120DCE70220DAE70320CB
:100D8000D8E7C046BA0D0020B90D0020B80D0020EC
:100D90004318072B02DD0820401A80B2704700007C
:100DA000F0B5DE4657464E464546E0B583B002AF45
:100DB000060094461D001C00CB18DB0801339A4640
:100DC0002B000833DB08DB006A46D31A9D4602ABD2
:100DD0009946002305E06246D018013300784A4660
:100DE000D0549C42F7DC002398469B4622E0F30057
:100DF0000B434A465846135489B2A8B2FFF7C8FFBE
:100E0000C4B24A465A44631C0021009150310E4836
:100E100008F04CFB0136F6B22D1BEDB25C44E4B297
:100E2000013CE3B29B46052002F044F901239C46B5
:100E3000E0440021C245DADCBD4601B0F0BCBB464F
:100E4000B246A946A046F0BDE00E0020F0B5DE4651
:100E500057464E464546E0B587B0060003921D0052
:100E6000CB18DB0801339B460027002398462AE075
:100E7000F3000B430F2202A884466244924613708B
:100E800089B2A8B2FFF784FFC4B2144B994601237C
:100E9000009352465021484608F008FB039A42440A
:100EA0000023009323005021484608F00BFB013635
:100EB000F6B22D1BEDB24444E3B29846642002F032
:100EC000F9F801370021BB45D2DC002007B0F0BCA7
:100ED000BB46B246A946A046F0BDC046E00E002083
:100EE00000B583B00191042201A905F0ADFB03B068
:100EF00000BD000010B584B01C001068104917F048
:100F0000DBFC002805D120680E4917F0D5FC00282D
:100F100002D00D4804B010BD002202A903A8FFF7BB
:100F200079FB03996846FFF7DBFF029901A8FFF7F9
:100F3000D7FF08236A4600210020FFF731FFE8E7CA
:100F40005C8F011048B50110C88E011082B00023DB
:100F500003E0C15C01AAD1540133032BF9D90198F4
:100F600002B0704743780178591A0131C27883780A
:100F7000D31A01334B4343607047000000B585B07E
:100F800080236A461373507300230093023303AA2D
:100F90003C21024808F08AFA05B000BDE00E0020AE
:100FA00070B506000D00002403E0305DFFF7E6FF9A
:100FB0000134AC42F9DB70BDF0B583B006000D0022
:100FC0004F1C380005F01CFB040040230370013067
:100FD0002A00310005F038FB002300933B0022007B
:100FE0003C21044808F062FA200005F01BFB03B026
:100FF000F0BDC046E00E002030B589B001A8074919
:1010000003000A0032CA32C332CA32C312881A80BD
:101010001A21FFF7C5FF09B030BDC046849001100A
:1010200030B583B005000C0021236A4613700B789D
:1010300053704B7893702223D3708B781371CB78D5
:10104000537106216846FFF7ABFF61682800FFF780
:10105000B3FF03B030BD000010B50C2202490348B5
:1010600016F0FAFF10BDC046BC0D0020410900106B
:1010700010B50421014817F013F810BDF8900110C5
:1010800010B512F0ADF811F05FFF02E00E4805F068
:1010900003FC0E4B0E4A0F490F4812F039F8002896
:1010A000F4D10E4805F0F8FB16F0C6FF0C4805F029
:1010B000F3FBFFF7D1FF0B4805F0EEFBFFF7D8FF7E
:1010C000094805F0E9FB10BD648F01103075000080
:1010D00004004000BC900110D0900110808F0110DE
:1010E0008C8F0110A48F0110BC8F0110F0B5C84C7B
:1010F000A544002017F08CFC17F062FB05F008FCFB
:10110000C44B00221A7000239C939D9301239B9350
:1011100016F0DEFF060016F0DBFF05008EAABE4FBC
:101120003B001C3313CB13C2BC4BFA2252001A6093
:10113000FFF73AFA082391AA00210020FFF786FE64
:1011400091A8FFF703FFB64B186092A8FFF7FEFEC9
:10115000B44B1860FFF750FF0822002188A805F063
:101160006DFA7F2302AAB049521813707C3B02AA81
:10117000AE495218137088A8FFF7F4FE802292003F
:10118000002108A805F05AFA88A908A8FFF748FF27
:1011900004AA28370BCF0BC23B681360002700243A
:1011A00009E0BA0004ABD35822B2052108A8FFF722
:1011B00021F908340137032FF3D988A908A8FFF7CC
:1011C0002FFF01229EA99FA8FFF724FAFFF758FFDF
:1011D000002400F040FC01229EA99FA8FFF71AFA04
:1011E00000239E9A9F9995A8FFF7E6FA9E999F98EB
:1011F000FFF79EFA0290002C04D0012C70D02E0034
:1012000000F030FC9E9805F0ABF906000F009F98A7
:1012100005F0A6F90090019132003B00844805F0EA
:101220006BFB80229200002108A805F007FA88A92C
:1012300008A8FFF7F5FE7F4B0022012108A8FFF761
:10124000D9F87D4E02AB9C466644724B1978320049
:101250009F98FFF747FB05F083F902000B007749E1
:101260008BA803F0C5FF33784B2B2ED18BA817F03A
:1012700067FB714B02AA944663441A788BAB9C4679
:1012800060446F4903F0B4FF8BAB0822012108A82A
:10129000FFF7B0F86B4B1022012108A8FFF7AAF85E
:1012A0009E9805F05DF902000B0067498BA803F0DA
:1012B0009FFF8BAB1822012108A8FFF79BF888A994
:1012C00008A8FFF7ADFE2E00CCE38BA817F038FB83
:1012D0008BAB9C466044F822594903F089FFC5E76F
:1012E00080229200002108A805F0A8F988A908A882
:1012F000FFF796FE554B0022012108A8FFF77AF868
:101300004D4E02AB9C466644424B1978320002981F
:10131000FFF7E8FA05F024F902000B0047498BA813
:1013200003F066FF33784B2B19D18BA817F008FB1D
:10133000414B02AA944663441A788BAB9C466044A6
:101340003F4903F055FF8BAB0822012108A8FFF7A6
:1013500051F888A908A8FFF763FE2E0082E38BA846
:1013600017F0EEFA8BAB9C466044F822344903F048
:101370003FFFDAE70133274A137084E380229200AB
:10138000002108A805F05AF988A908A8FFF748FE27
:101390002E4B0022012108A8FFF72CF8264D02ABA6
:1013A0009C4665441B4B19782A000298FFF79AFA6D
:1013B00005F0D6F802000B0020498BA803F018FFB7
:1013C0002B784B2B18D18BA817F0BAFA1A4B02AA1C
:1013D000944663441A788BAB9C466044184903F0EA
:1013E00007FF8BAB0822012108A8FFF703F888A9A3
:1013F00008A8FFF715FE2BE38BA817F0A1FA8BAB1B
:101400009C466044F8220E4903F0F2FEDBE7C0463A
:101410007CFDFFFFE1E5002084900110F4E1002055
:1014200090E50020682F0020190200001B02000038
:10143000D48F0110E48F01102302000024900110CA
:10144000188F0110F08F01106C900110FC8F0110AB
:1014500080229200002108A805F0F0F888A908A8C9
:10146000FFF7DEFDDE4B0022012108A8FEF7C2FFD8
:10147000DC4D02AB9C466544DB4B19782A009698FC
:10148000FFF730FA05F06CF802000B00D7498BA883
:1014900003F0AEFE2B784B2B6CD18BA817F050FAD3
:1014A00002ABD04D5B191A788BAB9C466044D04997
:1014B00003F09EFE8BAB0822012108A8FEF79AFFDD
:1014C000C94B19782B0002AA944663441A009598D8
:1014D000FFF708FA05F044F802000B00C5498BA895
:1014E00003F086FE02AB5B191B784B2B4DD18BA80A
:1014F00017F026FA02ABBB4D5B191A788BAB9C46F2
:101500006044BB4903F074FE8BAB1022012108A894
:10151000FEF770FFB44B19782B0002AA944663447F
:101520001A009998FFF7DEF905F01AF802000B008F
:10153000B1498BA803F05CFE02AB5B191B784B2B07
:101540002ED18BA817F0FCF9A64B02AA944663444F
:101550001A788BAB9C466044A54903F049FE8BABDF
:101560001822012108A8FEF745FF88A908A8FFF75F
:1015700057FD6DE28BA817F0E3F98BAB9C466044F6
:10158000F8229B4903F034FE87E78BA817F0D8F9BF
:101590008BAB9C466044F822954903F029FEA6E7F0
:1015A0008BA817F0CDF98BAB9C466044F82290498C
:1015B00003F01EFEC5E78BA817F0C2F98BAB9C4663
:1015C0006044F8228A4903F013FE9AE20134E4B23F
:1015D000052C54D0002C5FD180229200002108A855
:1015E00005F02CF888A908A8FFF71AFD7C4B00220B
:1015F000012108A8FEF7FEFE7A4D02AB9C46654429
:10160000794B19782A009F98FFF76CF904F0A8FF2E
:1016100002000B0079498BA803F0EAFD2B784B2BD5
:101620002FD18BA817F08CF96E4B02AA9446634415
:101630001A788BAB9C4660446D4903F0D9FD8BABA7
:101640000822012108A8FEF7D5FE6D4B10220121CA
:1016500008A8FEF7CFFE9E9804F082FF02000B0060
:1016600068498BA803F0C4FD8BAB1822012108A8A0
:10167000FEF7C0FE88A908A8FFF7D2FCE8E1002425
:10168000AAE78BA817F05CF98BAB9C466044F82264
:10169000574903F0ADFDC4E7012C58D0022C00D10E
:1016A000BEE0032C00D16EE1042C00D0D0E18022FA
:1016B0009200002108A804F0C1FF88A908A8FFF73C
:1016C000AFFC514B0022012108A8FEF793FE454DC7
:1016D00002AB9C466544444B19784C4B18682A0071
:1016E000FFF700F904F03CFF02000B0048498BA80B
:1016F00003F07EFD2B784B2B00D08AE18BA817F0EE
:101700001FF9384B02AA944663441A788BAB9C4667
:101710006044374903F06CFD8BAB0822012108A817
:10172000FEF768FE3B4B186804F01AFF02000B003E
:1017300039498BA803F05CFD8BAB1022012108A86E
:10174000FEF758FE88A908A8FFF76AFC80E180220E
:101750009200002108A804F071FF88A908A8FFF7EB
:101760005FFC2E4B0022012108A8FEF743FE1D4D11
:1017700002AB9C4665441C4B19782A000298FFF77F
:10178000B1F804F0EDFE02000B001C498BA803F039
:101790002FFD2B784B2B18D18BA817F0D1F8114BBC
:1017A00002AA944663441A788BAB9C466044104965
:1017B00003F01EFD8BAB0822012108A8FEF71AFEDC
:1017C00088A908A8FFF72CFC42E18BA817F0B8F80D
:1017D0008BAB9C466044F822054903F009FDDBE72A
:1017E000E48F011023020000E1E5002008900110C1
:1017F000188F0110149001102090011024900110F6
:10180000F08F01106C9001102C90011090E50020D9
:1018100034900110682F002074900110FC8F01108B
:1018200080229200002108A804F008FF88A908A8D7
:10183000FFF7F6FBC74B0022012108A8FEF7DAFDEF
:10184000C54D02AB9C466544C44B19782A00969856
:10185000FFF748F804F084FE02000B00C0498BA893
:1018600003F0C6FC2B784B2B6CD18BA817F068F8D3
:1018700002ABB94D5B191A788BAB9C466044B949F1
:1018800003F0B6FC8BAB0822012108A8FEF7B2FDDD
:10189000B24B19782B0002AA944663441A0095981B
:1018A000FFF720F804F05CFE02000B00AE498BA8A5
:1018B00003F09EFC02AB5B191B784B2B4DD18BA820
:1018C00017F03EF802ABA44D5B191A788BAB9C461F
:1018D0006044A44903F08CFC8BAB1022012108A8C2
:1018E000FEF788FD9D4B19782B0002AA94466344AD
:1018F0001A009998FEF7F6FF04F032FE02000B0082
:101900009A498BA803F074FC02AB5B191B784B2B34
:101910002ED18BA817F014F88F4B02AA944663447B
:101920001A788BAB9C4660448E4903F061FC8BAB0C
:101930001822012108A8FEF75DFD88A908A8FFF775
:101940006FFB85E08BA816F0FBFF8BAB9C466044D9
:10195000F822844903F04CFC87E78BA816F0F0FFCF
:101960008BAB9C466044F8227E4903F041FCA6E71D
:101970008BA816F0E5FF8BAB9C466044F8227949B2
:1019800003F036FCC5E780229200002108A804F08D
:1019900055FE88A908A8FFF743FB754B00220121DB
:1019A00008A8FEF727FD989B0393181C04F0D8FDA8
:1019B00002000B006F498BA803F01AFC8BAB0822C6
:1019C000012108A8FEF716FD979B0393181C04F04D
:1019D000C7FD02000B0068498BA803F009FC8BAB24
:1019E0001022012108A8FEF705FD9A9804F0B8FD21
:1019F00002000B0061498BA803F0FAFB8BAB1822A5
:101A0000012108A8FEF7F6FC88A908A8FFF708FB43
:101A10001EE08BA816F094FF8BAB9C466044F82226
:101A2000504903F0E5FB69E69F9993A8FFF758FA40
:101A30009E9994A8FFF754FA082393AA0021002046
:101A4000FFF7AEF94E4B9F9A1A604E4B9E9A1A6062
:101A500016F03EFB0500AB1B4B4A1268934201D9BE
:101A6000FFF7B9FBFFF736F9022800D1AEE50328EE
:101A7000DAD00128ECD1394B1B78012B00D879E45E
:101A8000364B00221A70012C00D177E4022C00D1D1
:101A9000DEE4042CDCD1082391AA00210020FFF70A
:101AA000D5F991A8FFF752FA354F386092A8FFF7A1
:101AB0004DFA344B186080229200002108A804F0EF
:101AC000BDFD88A908A8FFF7ABFA304B0022012121
:101AD00008A8FEF78FFC204D02AB9C4665441F4BC7
:101AE000197838682A00FEF7FDFE04F039FD02007F
:101AF0000B0027498BA803F07BFB2B784B2B00D0E6
:101B000059E58BA816F01CFF134B02AA94466344B8
:101B10001A788BAB9C466044124903F069FB8BAB8F
:101B20000822012108A8FEF765FC164B186804F08E
:101B300017FD02000B0017498BA803F059FB8BAB74
:101B40001022012108A8FEF755FC88A908A8FFF774
:101B500067FA7DE7E48F011023020000E1E5002031
:101B600008900110188F011014900110209001109E
:101B7000F08F0110509001105C90011068900110DE
:101B800090E50020682F0020F4E100202C90011047
:101B9000349001104090011010B58300084A94461B
:101BA00063441C6840226240C024144080225201D9
:101BB00013431C60C000034B9C466044416010BD51
:101BC00004C001400040014080000B4B9C46604433
:101BD00000290DD00823002A0CD0042213430268E8
:101BE00053400C221340802252011043036070477F
:101BF0000023F0E70022F1E704C00140002909D0EA
:101C00008000094B9C46604480239B0118430223BB
:101C1000036070478000044B9C466044C0239B01D6
:101C2000184302230360F4E704C0014070B5D023D9
:101C30001B061B689D00094C2C59204207D19B00B4
:101C40002043064C18510D2000F0F2F970BD044BF2
:101C5000044ACC21044802F031F9C046E0E10020FA
:101C600058920110309301108492011010B50400B5
:101C7000D0231B061B689B000A4A9B5818420BD0B6
:101C80000D2000F0EFFAD0231B061B6805499B00CE
:101C90005A58A2435A5010BD034B044AD621044857
:101CA00002F00CF9E0E10020E09201100C93011029
:101CB00084920110072303409B00C00899403C30E8
:101CC0008000014BC150704700400140F8B507004B
:101CD0000C0016001D00FFF7EDFFFB089B00ED1840
:101CE0000720384080008440002E04D080239B01D0
:101CF0001D432C60F8BDC0239B011D432C60F9E7F8
:101D000010B5D0231B061B68002B03D0024BFFF736
:101D1000DDFF10BD014BFAE73041014000410140B9
:101D200010B501238340D0221206936293610521EE
:101D3000FFF732FF10BD0000034B1B680220184064
:101D4000431E9841C0B2704700C00640EFF31080B8
:101D500072B6034B1B68002BFBD0BFF35F8F70473D
:101D60002C0100D0BFF35F8F024B00221A6080F37A
:101D7000108870472C0100D0F8B506000C00150043
:101D8000FFF7E4FFE308F718F15C07222240012384
:101D900093400B4205D1DBB20B433B70FFF7E2FFF0
:101DA000F8BD2100280002F071F9F0B583B00600FB
:101DB000019114001F00FFF7C9FF00E00134BC428D
:101DC0000CD8E308F518F35C0721214001228A4072
:101DD0001A42F3D1D2B21A432A7001E001246442BC
:101DE000FFF7C0FF002C02DB200003B0F0BD019B19
:101DF000002BF9D0089802F049F9000070B50500F1
:101E00000C00FFF7A3FFE308EE18EA5C07210C4083
:101E10000123A340134204D09A433270FFF7A2FF7C
:101E200070BD034B034A2C31034802F047F8C0460B
:101E300064930110E493011084930110002307E0E0
:101E4000054A9A189200BFF35F8F00211160013399
:101E50001F2BF5D97047C04640000034054A107862
:101E6000431CDBB21370172B02D9130010221A7017
:101E70007047C046EC0D002000B583B00100044B54
:101E800000931F2318220348FFF78FFF03B000BD04
:101E9000F493011004200020074B9B681030800051
:101EA0001950BFF35F8FBFF35F8F044B00211960A0
:101EB00082F310887047C04600ED00E0240100D096
:101EC0001F23181A7047000010B5091A081F0A4B83
:101ED0009C466144094A914208D8C30706D4401081
:101EE0004005400D064B184380B210BD054B064A15
:101EF000A321064801F0E2FFFC070000FE0F0000EE
:101F000000E0FFFF109401109C9601104094011016
:101F100010B5091A04394C08090B08D14905490DB7
:101F2000064A11430180064B2343438010BD054BF5
:101F3000054AAB21054801F0C1FFC04600F0FFFF94
:101F400000F8FFFF9C94011070960110409401105E
:101F500001238340034A10681840431E9841C0B2D1
:101F60007047C04600E100E0002904D0034B186030
:101F7000034B18607047034B1860FBE780E200E0FA
:101F800000E100E080E100E010B50123834018008B
:101F9000FFF7EAFF10BD000001238340014A1360F0
:101FA0007047C04600E200E0024B9B6810308000A2
:101FB000C058704700ED00E010B5FFF7F5FF0028AE
:101FC00005D0054BC01A2F2803D8012010BD0020D2
:101FD000FCE70020FAE7C046F00D002070B50400D1
:101FE0000D00EFF3108672B60C4B1B68002BFBD074
:101FF000BFF35F8F2000FFF7D7FF094B984201D056
:10200000A84205D1320029002000FFF745FF70BD2E
:10201000044B054A8621054801F050FF240100D0F9
:10202000CD010010AC940110D09601104094011025
:10203000F0B5DE4657464E464546E0B589B0814686
:1020400001911500EFF3108A72B6744B1B68002BD8
:10205000FBD0BFF35F8F724B0027DF57002F40DBB1
:102060007C00E419A4006F4824180622A2566C4B89
:102070001A706D4B9A684B4610339B00D3589846A4
:102080001E001B1A2F2B38D9684B98452FD105AE4F
:10209000674B33807B009B46D8198000614B984684
:1020A000404402306349FFF70FFF7080624BB380FA
:1020B000FF23B371F571019B07935F44BF00474451
:1020C0000ECE0EC701231C43A04652464146484649
:1020D000FFF7E2FE09B0F0BCBB46B246A946A046F7
:1020E000F0BD564B564AD721564801F0E7FE564BF5
:1020F000534ADE21534801F0E1FEC04340440C2125
:1021000003F010F9002912D101239E43B346330096
:102110000026DA79AA4211D90621595600290CDB8A
:102120004A00521892001E003E4B9B18F1E7474BA5
:10213000434AEA21434801F0C1FE1E00002E3AD076
:1021400005AB434A1A80813A5A800623F35602931C
:10215000002B17DA3F4805AB9B469880029A9A718C
:10216000DD71019A0792301D2100FFF7ADFEB080AE
:10217000B7717B00DB199B002A4FFF185B4607CB2A
:1021800007C7A2E77800C0198000264BC0180430AA
:10219000321DB388D90A1C2907D15B0559150231B4
:1021A00049005118FFF790FED5E72B4B2B4AB12180
:1021B000244801F083FE05AE1D4B33807B00029363
:1021C000D8198000174A9046020042440392901C9E
:1021D0001849FFF779FE7080039A101D5946FFF7E2
:1021E00073FEB0801E4B5A464146521A5241534329
:1021F0001B0DB371F571019A0792029B9C466744CF
:10220000BF0047440ECE0EC7114B5A461380813B88
:10221000538001231C43A04657E7C046240100D049
:10222000D5E50020F00D002000ED00E0CD0100100C
:1022300000A1FFFF200E002001BDFFFFE49401106C
:10224000B8960110409401100C95011034950110BE
:102250000148000001BD0000A8950110A8960110DA
:10226000AAAA0000F0B5CE46474680B583B0060066
:102270000D00EFF3108872B6564B1B68002BFBD095
:10228000BFF35F8F544B9A6834001034A300D758C3
:10229000524B9F4207D0AF4200D198E00197504B7C
:1022A000FB1A2F2B09D9424639003000FFF7F4FD05
:1022B00003B0C0BCB946B046F0BD3000FFF748FEE1
:1022C000814600213000FFF75FFEBFF35F8FEFF321
:1022D0000581002901D08C4211D10123019C9C432E
:1022E0000022A368AB4212D00622A256002A0DDBC0
:1022F00053009B189B002200394CE418F1E736216B
:10230000384B394AFF31394801F0D8FD2200AB4241
:1023100056D106256557002D38DB6B005B199A00F6
:102320002F4B9B189A68A260DA79E27106229A56BE
:10233000A2719B795BB2002B0FDA2D48A0806B0055
:102340005B199B00264AD3182A4A11789971157097
:1023500049463000FFF718FEA5E7201D6B005B190A
:102360009B001F4A9B181A1D9B88D90A1C2907D15C
:102370005B055B15023359005118FFF7A5FDDDE73A
:102380001D4B1E4AB121194801F098FD002912D1B8
:10239000002A0ED0FF239371194B9380154A1378AE
:1023A000A371184B0E49641A644163431B0D1370EB
:1023B000CEE70A4FF2E7201D1349FFF7A9FDC7E753
:1023C0006A21124B084AFF31084801F077FD034F9C
:1023D00069E7C046240100D000ED00E0CD01001007
:1023E000F00D0020C0950110889601104094011056
:1023F00001BD0000D5E50020A8950110A8960110A8
:1024000001BDFFFFAAAA00002A0E0020F4950110CA
:1024100010B5032304009C43064A94466444226892
:102420001840C000FC3383409A43130081400B43A3
:10243000236010BD00E400E070B5012101432E4B84
:10244000CB1A2F2B28D8EFF30583002B2BD0EFF3DB
:10245000108C72B6294A1268002AFBD0BFF35F8F36
:10246000274A0400244D641B64416243120D54B298
:10247000244A92689B00D2588A421BD00022032A29
:1024800032D853009B189B001B49CB189B795BB239
:10249000A3421FD00132F2E7C7211B4B1B4A490060
:1024A0001B4801F00BFD92211A4B184AFF311848C6
:1024B00001F004FD134A92681749D150174B1A785E
:1024C00082711C70BFF35F8F0C4B00221A608CF37B
:1024D000108870BD0D005300991889006918FF26F7
:1024E0008E710F4A8A80E9E7D1210E4B074A4900D5
:1024F000074801F0E3FCC046F00D0020240100D0A5
:10250000AAAA000000ED00E0FC950110549601100D
:102510004094011024960110CD010010D5E5002053
:1025200001BDFFFF309601100022044B02E0044978
:1025300002C30132072AFAD97047C04600E400E01E
:102540008080808010B5FFF7BBFC01000148FFF7D9
:1025500055FC10BDE2E5002000B583B00100064B3C
:102560000093052300220548FFF71FFC002801DB2C
:102570001F23181A03B000BD38960110E2E50020B1
:1025800070B504000E001500FFF768FC0100200084
:1025900000F006F8A680E580BFF35F8F70BD0000F5
:1025A000024B9C4661448900016070474000003442
:1025B00010B50400FFF752FC01002000FFF7F0FF08
:1025C000FF232371BFF35F8F10BD10B50400FFF729
:1025D00045FC01002000FFF7E3FFFF2323710023E8
:1025E0006371BFF35F8F10BD034B9C46614489004C
:1025F0000160BFF35F8F70474000003410B50400E6
:102600000120FFF739FC01002000FFF7EDFF10BDAE
:1026100070B505000C00080000F000FF094920001B
:1026200000F040FEFFF71AFC074B9C466044800018
:1026300068602C75D0231B061B786B75A400034BB8
:10264000E55070BD552900104000003414D2002020
:102650000A4B1A68EFF3108172B61368002BFCD096
:10266000BFF35F8F054B1B68BFF35F8F00221A60BB
:1026700081F3108840BF00200021704748E500200A
:1026800010B5002922D003681B7B99421ED8174B36
:102690009C466144090183689C4661440C68496812
:1026A000002A19D003681B7B9A4215D883680F480B
:1026B0008446624412019A1810685368020001208F
:1026C0008B4201D80ED00020C0B210BD084B094A81
:1026D0003C21094801F0F2FB054B064A3C21064823
:1026E00001F0ECFBA242EFD8EDE7C046FFFFFF0F81
:1026F0000C9901108C9B0110B898011010B500299D
:102700001ED0037B99421BD84B005B18033B046827
:10271000A4466344002919D0002A1DD0914221D03B
:10272000002A25D0047BA24222D8046850008018D9
:10273000033820188170197800291FD11A7010BD34
:10274000104B114A6821114801F0B8FB104B114A97
:102750006F310E4801F0B2FB0F4B0E4A70210B484F
:1027600001F0ACFB0D4B0B4A7121084801F0A6FBB0
:10277000044B054A6821054801F0A0FB41701A701E
:10278000DDE7C04630990110F89B01104C9901100B
:10279000B4990110D49B0110C0990110CC9901107B
:1027A00070B506000D001400002914D0002A14D0C2
:1027B000806873689847002806D0220029003000FE
:1027C000FFF79CFF280007E02A0021003000FFF7F8
:1027D00095FF200000E0100070BD0800FCE700003D
:1027E000F0B583B00500009201930AAB1C780BABE7
:1027F0001F78002C26D003685A7B944207D101230E
:10280000002B19D1002C3BD1200003B0F0BD002CCF
:102810000CD01A7B944209D81A6863001B19033B39
:10282000D3189B78002BEBD00123E9E73E4B3F4ABE
:1028300068213F4801F042FB3E4B3F4A67213F4839
:1028400001F03CFB03689C7B002CDBD012D01A7B90
:1028500094420FD862001219033A19688C466244F8
:1028600051789973002900D1D97300239370537064
:102870001370C7E72C4B2D4A68212D4801F01EFB31
:10288000002C3AD02B681B7B9C4236D82C4BE3188B
:102890001B01AA6894466344009A1A60019A5A6020
:1028A000089A9A60099ADA602E68002C2BD030D0F2
:1028B000337B9C422DD863001B19033B326894463E
:1028C000634400229A705A701A70717B22003000A3
:1028D000FFF766FF7073844200D095E7287D009A69
:1028E000019B00F027FD061E01D0002F17D00C9B86
:1028F000002B00D188E71E7086E7124B124A3C215C
:102900000E4801F0DBFA114B114AA521084801F0ED
:10291000D5FA054B054A6821054801F0CFFA286829
:10292000210000F03FFFE2E730990110F89B011011
:102930004C990110E4990110049C0110B898011001
:10294000FFFFFF0F0C9901108C9B0110B498011030
:10295000E89B0110F0B5DE4657464E464546E0B5C9
:102960008BB00990002308938200B54BD6583700EE
:1029700052E0B44BB44A3F21B44801F09FFAB44B43
:10298000B44A3C21B44801F099FA002901D1002849
:1029900069D10021404600F0FBFEA04219D12A680F
:1029A0006B6806920793AB689846EB689A46434675
:1029B000002B14D0002C18D03B681B7B9C4214D8F1
:1029C000631EFA68D35C08931B0218433861002029
:1029D00015E0A24BA24A8E219F4801F06FFAA14B4D
:1029E0009F4A92219C4801F069FA994B9E4A4121E5
:1029F000994801F063FA00239A46984600207B68C4
:102A0000BFF35F8F00221A6086F310884346002BC5
:102A100032D1002800D10CE100F000FC02000B1EB6
:102A2000A7DB00200021069007917868EFF310865D
:102A300072B601680029FCD0BFF35F8F3968884601
:102A40004C7B002CD7D09AD0097B8C4297D88749F1
:102A500065182D01B9688C46654428686968801A34
:102A60009941002991DD2A686B68099800F062FCA1
:102A700000239A469846C2E7089B1B0223439946C7
:102A800051461800C04705000E007A68EFF3108B1E
:102A900072B6136859424B41D9B2002BF9D1BFF33A
:102AA0005F8F002E1EDB002E46DD3B69002B47D0DA
:102AB0004B456DD100F0B2FB02000B1E6EDB5219CC
:102AC0007341002B70DB002B72DB0021049101317C
:102AD0000391029451460191414600913800FFF75D
:102AE0007FFE4CE03B69002BDDD04B4514D1069AAC
:102AF000079B521BB341002B14DB002B16DB00217C
:102B00000491013103910294514601914146009193
:102B10003800FFF765FE32E0554B514AA1214E487F
:102B200001F0CCF901225242524BE6E7454B464AAE
:102B30003F21464801F0C2F9002E01D1002DB4D149
:102B40003B68002C50D05A7B944237D10121002998
:102B50004AD1DA7B002A4DD19A7B002A03D1DA7B55
:102B6000002A5AD19C73DC73002C5CD03B681B7B21
:102B70009C4258D8FA68013C135D01331355002379
:102B80003B617A68BFF35F8F13608BF3108843E774
:102B9000374B334AA421304801F090F9294B2A4A97
:102BA0003F212A4801F08AF901225242314B8AE73B
:102BB000244B254A3F21254801F080F9002C0DD0F7
:102BC0001A7B94420AD862001219033A18688446A4
:102BD00062449278002ABAD00121B8E7264B274AEE
:102BE0006821274801F06AF9264B274AF621244834
:102BF00001F064F9002A0AD0197B8A4207D85100F3
:102C00008A18033A19688C4662445470A4E71A4B38
:102C10001A4A68211A4801F051F91C4B1A4AFB2143
:102C2000174801F04BF90A4B0F4A41210A4801F0BD
:102C300045F90BB0F0BCBB46B246A946A046F0BD74
:102C400014D200205C970110589B01107897011056
:102C50000C9901108C9B0110B89801100C9A01106E
:102C6000709B0110249A0110B09B0110FFFFFF0F11
:102C7000309A0110FFFFFF7F30990110F89B01107F
:102C80004C9901106C9A0110C49B0110909A01108C
:102C900010B50C4B5B68002B04D00A210A48FFF7E3
:102CA0007FFC10BD074C2300084A1021206800F06B
:102CB0007FFC032000F0A6FA03212000FFF7A8FC08
:102CC000EBE7C046380E002048E5002081260010C2
:102CD00010B5064B5B68002B01D0044810BD044BB7
:102CE000044A5E21044801F0E9F8C046380E00208D
:102CF000A49A0110989B0110B8980110F0B5DE4617
:102D000057464E464546E0B58BB0804616001F003C
:102D1000149B9A46159B994616AB1B789B461F231E
:102D200002AA9446634400221A702BE0002809D0BE
:102D300042461268127B904204D8421E4146C9683E
:102D40008A5C41E0404B414A4121414801F0B6F8DC
:102D500007984CE0361BAF41002F07DB002F11DA3C
:102D60003C4B3D4A3F213D4801F0A8F80126764200
:102D70003B4FF3E7374B384A3F21384801F09EF884
:102D8000002F4FDB43465A68EFF3108472B6136886
:102D900059424B41D9B20791002BF8D1BFF35F8F55
:102DA0001F3302AA944663440493002303930293BF
:102DB0004B4601935346009332003B004046FFF7D9
:102DC0000FFD031EB2D1020041464968BFF35F8F79
:102DD00000250D6084F31088002B29D01F2302A941
:102DE0008C4663441B78002BB2D112021043002B97
:102DF00020D05B46002B1DD04946D04704000D0073
:102E000003000B431DD00029A4DB00F007FA0600E5
:102E10000F1EAFDB36196F41002FB1DA0126764263
:102E20000F4FADE70B4B0C4A3F210C4801F046F821
:102E3000012040420BB0F0BCBB46B246A946A046BA
:102E4000F0BD0798F6E7C0460C990110B09B011041
:102E5000B89801105C970110589B011078970110E9
:102E6000FFFFFF7FF8B50400002900D162E042684F
:102E7000EFF3108572B6136858424341D8B2002B65
:102E8000F9D1BFF35F8FCBB22268567BB3421BD11F
:102E90000120002848D0206988422BD0090AC9B2F5
:102EA000002B2ED02068007B83422AD8581EE6686B
:102EB000305C88422BD000206368BFF35F8F002214
:102EC0001A6085F31088F8BD002B0DD0167BB34235
:102ED0000AD85E00F618033E1768BC466644B6780A
:102EE000002ED6D00120D4E7134B144A6821144891
:102EF00000F0E4FF2C21134B134AFF31134800F07C
:102F0000DDFF134B134A4121104800F0D7FF190091
:102F1000100000F047FC0028CED199210E4B0A4A40
:102F200049000A4800F0CAFF23698B42C4D100233C
:102F30002361C1E70020C6E730990110F89B01101A
:102F40004C990110C89A0110409B0110B8980110CB
:102F50000C990110B09B0110EC9A0110407D704754
:102F6000F0B587B006000F00EFF30583002B1FD1EB
:102F700006246442E517A4197D418D4202D803D18D
:102F8000844201D900240025002D14DB049405950A
:102F900000F044F902000B1E13DBA41A9D41002D22
:102FA00017DC14D03000390000F044F907B0F0BD50
:102FB000234801F06BF8234B234A3F21234800F0BC
:102FC0007DFF204B204A3F21204800F077FF002C56
:102FD000E8D0FFF77DFE0023029301931C4B009382
:102FE000049A059BFFF78AFE002818DADAE7002327
:102FF00000E00023002BD5D1164B1A68EFF31081A7
:1030000072B61368002BFCD0BFF35F8F114B1B68A7
:10301000BFF35F8F00221A6081F3108820BF0499EC
:10302000059A0D4B5B6A9A42E3D80B48806A884246
:1030300003D29A42DBD00123DCE70123DAE7C04662
:10304000F09A01105C970110589B011078970110BD
:103050005126001048E500200040054070B50400EE
:103060000D0000F0DBF802000B1E0ADB2000290037
:103070008018594100290ADB00290CDBFFF770FF9B
:1030800070BD084B084A3F21084800F017FF012097
:1030900040420749F0E7034B034A3F21034800F051
:1030A0000DFFC0465C970110589B011078970110E6
:1030B000FFFFFF7F10B5FA2292000023002103F0EA
:1030C000BBF9FFF7CBFF10BD70B584B005000C0055
:1030D000EFF30583002B1ED1FFF7FAFD00230293C7
:1030E0000193224B00932A002300FFF707FE061EE0
:1030F00023DD20BFFFF7ECFD3100FFF7B3FE1C4BD3
:103100005B6A9C422DD81A4A926AAA422CD29C42EF
:1031100025D0012026E0164B5B6A994209D8144A53
:10312000926A824207D2994201D001201AE000201F
:1031300018E0002016E0012014E00D4B5B6A9C4271
:1031400009D80B4A926AAA4207D29C4201D00120B8
:1031500008E0002006E0002004E0012002E000205A
:1031600000E0002004B070BD0120FBE751260010F4
:103170000040054070B5EFF305801038EFF3108C78
:1031800072B61A4B1B68002BFBD0BFF35F8F012276
:103190001300834016494B6316490B6016490978A2
:1031A0000C00C440224214D0114A546A8200134DCC
:1031B0005259944206D38200114C125999430E4B36
:1031C000197007E00A4A031D9B0099589950002284
:1031D00000E00022BFF35F8F044B002119608CF3E5
:1031E0001088002A00D0904770BDC046280100D04A
:1031F000004005403C700540E0E5002054E500201B
:10320000CC1D002010B50100024A0348FEF7B4FDB2
:1032100010BDC046289C0110CFE50020044B5B6A1E
:10322000034A906A1900536A9942F9D17047C0461F
:1032300000400540084B5B6A01E0074B5B6A8B422C
:10324000FBD301E0044B5B6A8B4203D1024B9B6AC8
:103250008342F7D37047C0460040054070B5040074
:103260000D00FFF7DBFF02000B0020002900801893
:1032700059418B4202D804D1824202D901204042F6
:10328000C117002902DBFFF7D5FF70BD024B034ACF
:103290003F21034800F012FE5C970110EC9C0110E6
:1032A0007897011070B504000D00EFF3108672B628
:1032B0001B4B1B68002BFBD0BFF35F8F002D1CD076
:1032C0002000FEF771FE174B83420BD0190020003F
:1032D000FEF784FE01212000FEF756FE0123A340E5
:1032E000114A1360A400114BE550BFF35F8F0C4BE4
:1032F00000221A6086F3108870BDA2000B4B0021DB
:10330000D1500122A2400A490B7893430B70054922
:103310002000FEF7A7FF00212000FEF735FEE4E7BE
:10332000280100D07531001038600540CC1D002008
:10333000E0E50020F0B5DE4600B584B004001500DD
:1033400001921E000293FFF769FF03958E4202D897
:103350004ED185424CD9EFF3108B72B6274B1B68C8
:10336000002BFBD0BFF35F8F254A17780125A540BE
:10337000EBB23B431370234B5D63221D9200019916
:10338000D150A2002049029850501B6A2B4212D102
:103390001C4B1B6C2B4208D00020BFF35F8F174BD8
:1033A00000221A608BF3108823E0184B184AC521BD
:1033B000184800F083FDFFF731FF8E4214D802D188
:1033C000039B834210D80E4B1B78BB420ED00D4B93
:1033D0001D625D631F2004400123A3400E4A136059
:1033E000074B1F701E38D8E70020D6E70120D4E72E
:1033F000012004B080BCBB46F0BDC046280100D00F
:10340000E0E500200040054054E500204C9C011000
:10341000D09C0110709C011080E200E0EFF3108C52
:1034200072B60B4B1B68002BFBD0BFF35F8F0123E1
:103430008340084A136208490A789A430A70BFF326
:103440005F8F034B00221A608CF310887047C046D0
:10345000280100D000400540E0E5002010B500291B
:103460001ED0037B99421BD84B005B18033B0468BA
:10347000A4466344002919D0002A1DD0914221D0CE
:10348000002A25D0047BA24222D80468500080186C
:10349000033820188170197800291FD11A7010BDC7
:1034A000104B114A6821114800F008FD104B114AD9
:1034B0006F310E4800F002FD0F4B0E4A70210B4891
:1034C00000F0FCFC0D4B0B4A7121084800F0F6FCA3
:1034D000044B054A6821054800F0F0FC41701A7061
:1034E000DDE7C046309901100C9E01104C99011087
:1034F000B4990110F89D0110C0990110CC990110E8
:1035000070B506000D001400002914D0002A14D054
:10351000806873689847002806D022002900300090
:10352000FFF79CFF280007E02A0021003000FFF78A
:1035300095FF200000E0100070BD0800FCE70000CF
:1035400010B50023437301338373037BC3730123DB
:10355000027B9A4214D9002B0CD0027B934209D8EB
:103560005A00D218033A01688C4662440133DBB238
:103570005370EDE70B4B0C4A68210C4800F09EFCA1
:10358000002A09D0924207D8016853009A18033ADA
:103590008A180023537010BD024B034A6821034868
:1035A00000F08CFC309901100C9E01104C99011018
:1035B00010B5017342608360FFF7C2FF10BD0000C9
:1035C00070B50400081E00D170BD002934D0237BE3
:1035D000994231D84B005B18033B22689446634400
:1035E0005A78002AF0D02DD0237B9A422AD8530053
:1035F0009B18033B21688C4663445D780021597019
:10360000002825D0237B984222D843001B18033B77
:1036100021688C4663440021597001002000FFF7A7
:103620006FFF060029002000FFF7CAFF02003100EB
:103630002000FFF765FFC7E7084B094A68210948E2
:1036400000F03CFC054B064A6821064800F036FCB9
:10365000024B034A6821034800F030FC3099011006
:103660000C9E01104C99011070B505000C0016005D
:1036700000292FD034D0037B994231D84B005B18FE
:10368000033B0268944663445A78002A2ED19A7804
:10369000002A31D11978FFF793FF0300002E0AD0DA
:1036A000EA7B002A2ED1AA7B002A03D1EA7B002ADA
:1036B0003BD1AC73EC73002B3DD1002C4FD02B7B56
:1036C0009C424CD82B6861000C19033C1C19002348
:1036D000637070BD254B264A3821264800F0EEFB6A
:1036E000254B264A6821264800F0E8FB254B204A56
:1036F0003A21204800F0E2FB234B1D4A3B211D48A4
:1037000000F0DCFB002A0AD0297B8A4207D851004E
:103710008A18033A29688C4662445470C3E7164BF2
:10372000164A6821164800F0C9FB184B104A42217E
:10373000104800F0C3FB002B0BD02A7B934208D823
:1037400043001B18033B2A689446634400229A7086
:10375000B3E7094B094A6821094800F0AFFB064B63
:10376000064A6821064800F0A9FBC046049D0110E6
:10377000E49D01100C9D0110309901100C9E011068
:103780004C990110609D0110889D0110909A0110C4
:1037900070B504000A00457B2900FFF765FF6073E0
:1037A000280070BD70B50400002967D0437B8B42B0
:1037B0000ED0002911D0037B99420ED84B005B1824
:1037C000033B0268D0188378002B0CD1002056E010
:1037D0000121FFF7DDFF012051E0294B294A682133
:1037E000294800F06BFB002B20D0227B93421DD890
:1037F0005A00D318033B2268D2182568EB5C8B4231
:103800001AD0002B1BD0227B934218D85A00D31811
:10381000033B2268D21853788B4216D0002BF0D18C
:103820001A4B1B4A6B211B4800F048FB144B154AEE
:103830006821154800F042FB4378137007E0104BF5
:10384000104A6821104800F039FB43785370002378
:103850008370437001222000FFF706FF0200617BA6
:10386000814205D02000FFF74BFE6073012006E087
:10387000094B074A7121074800F020FB002070BD6A
:10388000309901100C9E01104C99011030960110D6
:10389000CC9D01100C9D0110AC9D011070B5046B06
:1038A000E30701D4200070BD02003032C0239B0129
:1038B00013430A4A1A60456A826AAD01AD18AD0227
:1038C000062000F0BDF9064901F02CFD010028009A
:1038D00001F028FD0021FFF7C1FCE3E70103000030
:1038E0004E0E000070B504000E001500FFF7D6FF65
:1038F00022002C32E16A4E40354080235B011343A5
:103900001D60206370BD000070B505000C0006202E
:1039100000F096F9C000210001F004FDC60908D0AE
:103920000E4B9E4216D87F231840013034004608C3
:1039300000E001246C62AE62002200212800FFF743
:10394000D1FF062000F07CF98000A101891901F067
:10395000E9FC70BD0026024CECE7C046FEFF00000B
:10396000FFFF000010B505394901013AD2001143AB
:10397000002B09D002220A43012B07D0002111435A
:103980006E22FFF7AFFF10BD0022F4E70421F6E737
:10399000002909D00A22064B9C4660444342584104
:1039A0004000044BC252704780225200F3E7C046E9
:1039B0000080FCBF94E5002070B505000C000620D7
:1039C00000F03EF9061E27D0164B9D4226D08022DD
:1039D000D203154B1A60154B1A60154B9B681100EA
:1039E0009943FAD100212800FFF7D2FF21002800D7
:1039F000FFF78AFF06000023012208212800FFF7B5
:103A0000B1FF2A002C3280239B01134310221A603D
:103A1000084B2B630323AB64300070BD802212047B
:103A2000D7E7C0460080034000E0004000F00040BF
:103A300000C0004001030000F8B5DE4657464E4680
:103A40004546E0B505000F0092460A9A934250D3CE
:103A50001A0E91461E020A9A00233000494601F0D0
:103A60009FFC80466C006419A400304B9C46644463
:103A70006368834200D260602B1FDBB29B46012B40
:103A80003DD9C0239B012343802212011A60AB0061
:103A9000274A9958002907D0506901F043FC431C7C
:103AA0005800C0180338FDD253465A0123685A40C3
:103AB000E0231A4080235B0123431A605A46012AFF
:103AC00028D980239B012343802212011A60434698
:103AD0006360424600233000494601F061FCAD00BE
:103AE000134B58510120F0BCBB46B246A946A04634
:103AF000F8BD104B104A3321104800F0DFF9012FB8
:103B0000BFD1C0239B01234303221A60A368DB07B4
:103B1000FCD5C9E72168794003220A401A60A268EF
:103B20000123BB401342FAD0CBE7C04600800040DF
:103B300008200020189E01108C9E01102C9E011060
:103B400030B583B00C2000F011F9FEF7F5F800282D
:103B50000DD0002304E099002D4A2E4888500133EF
:103B6000092BF8D92A4B2C4A5A6203B030BD2B4B93
:103B700000229A6700F06CF9294B01221A60274B4A
:103B80005B6C012BFBD1274B03221A60234B9B6BF1
:103B9000012BFBD1013300930433234A0121234835
:103BA00000F054F805230093214A0121214800F038
:103BB0004DF8214B0093002202210420FFF73CFF27
:103BC0001E4D00952B00002201210520FFF734FF38
:103BD000104C00942300002200210720FFF72CFF47
:103BE00000942300002200210820FFF725FF0A4B44
:103BF00000932300002200210920FFF71DFF0095FC
:103C00002B00002200210620FFF716FFADE7C0467B
:103C100008200020006CDC021BB700000080004080
:103C20003CB0004030B00040002F68590080024096
:103C3000008C864700C00240001BB7004059730744
:103C40008000014BC058704708200020F0B5C646E0
:103C500000B504000E0017001D00374801F062FB9C
:103C60008046364BFA18364B9A4239D80100380054
:103C700001F058FB0200103A98235B009A4235D8B5
:103C80006B1E062B38D8069B013B062B34D83F0908
:103C9000474537D32D04069B1A0315432368002B91
:103CA00036DB284B9C4244D080225201264B1A60BE
:103CB000264B1A60264B9B6811009943FAD1266067
:103CC000A060231DC02292011A43212313602368A0
:103CD000002BFCDAE5600823136080BCB846F0BD19
:103CE0001C4B1D4A11211D4800F0E8F81C4B1A4AD4
:103CF00019211A4800F0E2F81A4B174A1C211748FC
:103D000000F0DCF8184B144A2321144800F0D6F8D0
:103D100022683F231340B342C3D1A3681B051B0D88
:103D20008342BED1E368EE22D2021340AB42B8D147
:103D3000D3E780229201B9E7001BB70080E84BD39C
:103D400080F8A93200C0024000E0004000F00040CE
:103D500000C000409C9E0110DC9F0110FC9E0110E1
:103D6000589F0110749F0110C09F011080239B0079
:103D70000343014AD362704700800540024B1A6832
:103D8000024B5A607047C046FC3700200080054057
:103D900010B50200164B8020C0051860154B164860
:103DA000186000290AD0154BE021C9041960002AC7
:103DB00009D1124B802212061A6010BD0C4BE02173
:103DC000C9041960F3E753019B1A98008018000199
:103DD0000B4B186080235B04984202D3084B094ABE
:103DE0001A60FFF7CBFF054B8022D2051A60E4E78B
:103DF00000B0054008200140FCFF010000A0054084
:103E0000FC370020FFFFFF0010B5030010000C4A34
:103E10008024E4051460002B0DD001221343094ACD
:103E2000094CD461094C5C401462516293620021D8
:103E3000FFF7AEFF10BD034B0022DA61F7E7C04683
:103E400000B0054000800540D3C007B02D3FF84FBB
:103E5000064BAA2212011A602F22DA60044B054A8F
:103E60001A60024B5B68002BFBDA7047004002408F
:103E70000060024000B0FA0000BEFDE703000A4AFD
:103E80001268002A08D0084A1068C318074A9A42E4
:103E900006D3054A13607047034A05491160F2E7EB
:103EA00001204042F7E7C046642F002000000420B4
:103EB000E4E5002010B5FFF7DFFF000010B582B089
:103EC0000C001900002A0CD0084B002A0BD00192DC
:103ED000009323000200064802F00EFD0120FFF7C8
:103EE000CBFF044BF1E7034AF1E7C046E89F01101E
:103EF000F89F0110FC7F051070B52B4B2B4A1A6000
:103F00002B4B2C4A1A602C4B9A682A4B9343FAD1BC
:103F10002A4C01E008CC9847294B9C42FAD3FFF782
:103F20000FFE234B274A1A60234B9B68DB43DB01C0
:103F3000FAD1254B40229A675A671A67DA66234CF2
:103F400009E0234B234A87212348FFF7B7FF2000CE
:103F5000FEF72EFB0834214B9C4209D22368002B2C
:103F6000F5D0012BEDD12000FEF72FFB0834F2E74E
:103F70001B4CA1681B4DC022280002F065FBA56008
:103F8000EFF30583002B00D000BEFDF757FFFEF7CF
:103F9000CBFAFEF77DFE144C01E008CC9847134B9A
:103FA0009C42FAD370BDC04600E00040BFCDFBFE8E
:103FB00000F00040FE7F3C0000C000409017002051
:103FC000A0170020FFFFFF0100F00140881700202C
:103FD00028A00110E0A0011048A0011090170020B7
:103FE00000ED00E000000020A0170020A81700202E
:103FF000D0B5041E18D0FFF711F906000F1E15DB0F
:104000000D4908684968361A8F410C4A0023300070
:10401000390001F0ADF920606160084A00233000EA
:10402000390001F0A5F9A2600020D0BD044B054A7B
:104030003F210548FFF742FF1019002040420F00C2
:104040005C970110C8A001107897011010B504000A
:10405000FFF7E4F800290ADB084A002301F0A0F981
:10406000206000236360A360E360002010BD044B68
:10407000044A3F210448FFF721FFC04610270000F3
:104080005C970110C8A00110789701100FB400B51B
:1040900083B0084802F000FC049B002B07D005A960
:1040A0000191180002F008FC034802F0F5FB012022
:1040B000FFF7E2FEA8A001101C56051010B501483C
:1040C000FFF7E4FFB8A001109A4200D2885470476D
:1040D000704710B5002802D00B684968984710BD9A
:1040E0000100002007E083001B185B00501C0860E3
:1040F0001078C01830380A681378303BDBB2092BCF
:10410000F1D97047F0B5DE4657464E464546E0B514
:1041100083B093461F000C9B9A460D9C0E9B9946BC
:104120000F9B9B0703D0B8460F00060022E00192C8
:10413000A34688464E46B9460700B44207D2551CEE
:104140004B4641462020B84701342A00F5E73D00A0
:104150004F465C46019B9B46B1464646B8463700F3
:104160002E0007E0013C551C5346185D43463900BC
:10417000B0472A00002CF5D135003E0047460F9B82
:104180009B0707D4100003B0F0BCBB46B246A9465B
:10419000A046F0BDB0464E46B9462F005D46531BC3
:1041A000B342EFD2541C4B4641462020B847220070
:1041B000F5E7F0B5CE46474680B585B094469846BB
:1041C0000C9D0D9C0EAB1B789946109A119B129E6C
:1041D000B7071CD4002B0CD0F7070AD54F46002F89
:1041E00002D10C37374204D0013B02E030272F5573
:1041F0000134944201D21F2CF8D9F70707D59C420D
:1042000005D21F2C03D830272F550134F5E7F706C8
:1042100015D5770505D4002C03D0944224D09C42B8
:1042200022D00F9A102A2BD00F9A102A30D00F9A32
:10423000022A35D01F2C02D830222A5501341F2CD7
:1042400005D84A46002A31D02D222A55013403963A
:1042500002930194009543466246FFF753FF05B071
:10426000C0BCB946B046F0BD621E012C06D00F9FFF
:10427000102F01D01400D4E7023CD2E71400D0E79D
:10428000B206D1D41F2CCFD878222A550134D1E7D9
:10429000B206CCD51F2CCAD858222A550134C9E7FA
:1042A0001F2CC7D860322A550134C3E7720703D5E3
:1042B0002B222A550134CAE73207C8D520222A55B5
:1042C0000134C4E7F0B5DE4657464E464546E0B5F4
:1042D00093B081468A46089209931CAB10CB1B7899
:1042E0009B461E9D219B9846002C03D110234246DD
:1042F0009A4390468023DB0046461E4042461A42BF
:1043000012D0002C22D000260EE03033D9B2771C18
:104310000AAB99552900200001F004F8AC4216D3ED
:104320001F2F14D83E0004002900200000F0FAFFDF
:10433000CBB2092BE9D94246920605D54121C918CD
:10434000C9B20A39C9B2E2E76121F8E7270043465A
:104350000693209B05931F9B049303955B46029352
:1043600001970AAB0093099B089A51464846FFF70C
:1043700020FF13B0F0BCBB46B246A946A046F0BD34
:10438000F0B5DE4657464E464546E0B595B0089036
:1043900009910A920B931E9E1F9C20AB1B789B4693
:1043A000229B9946239D269B9A463300234303D1A3
:1043B000103352469A4392468023DB0057461F40F3
:1043C00052461A4219D0330023432DD0002714E05F
:1043D0003033DAB27B1C98460CABDA554A462B00D8
:1043E0003000210000F0DCFFA5421FD819D0434661
:1043F0001F2B1BD8474606000C004A462B003000F6
:10440000210000F0CDFFD3B2092BE1D9524692062C
:1044100005D54122D218D2B20A3AD2B2DAE76122E5
:10442000F8E7B145E3D901E00023984653460693E7
:10443000259B0593249B04934B4603935B46029371
:10444000434601930CAB00930B9B0A9A0999089879
:10445000FFF7AFFE15B0F0BCBB46B246A946A0467A
:10446000F0BD0000F0B5DE4657464E464546E0B585
:1044700091B083468A460C9298461A9C08941B9DDC
:10448000099522002B002000290001F00CFA0028D9
:1044900000D0E5E001225242D74B2000290001F074
:1044A000FDF9002800D0DBE001225242D34B20006E
:1044B000290001F0DDF9002800D0D1E0002200231E
:1044C000089E3000099D290001F0D2F9002800D093
:1044D000DDE008980999069007918023DB001E9A79
:1044E0001A400D921E9A1A4201D106231C93069877
:1044F000079904000D000A000600024300D1D1E034
:10450000080D4005400DBE4CA44660440A03120B42
:10451000BC4B13431F0001F0D9F9BB4ABB4B01F060
:1045200060F9BB4ABB4B01F03DF904000D000022CD
:10453000B94B3000390001F030F9B84AB84B01F0FE
:1045400050F902000B002000290001F02BF901F0C6
:10455000D5F9814601F0BAF904000D00B14AB24B19
:1045600001F03FF90022B14B01F01CF901F0C6F94E
:104570000600AF4AAF4B2000290001F032F90400D9
:104580000D00300001F0A2F9AB4AAC4B01F029F963
:1045900002000B002000290001F0FFF804000D00CC
:1045A00002000B0001F01DF90A900B91A44BF318C7
:1045B00000261F0522002B002000290001F0F2F840
:1045C0000E900F9122002B0000208021C90501F0E0
:1045D000E4F804000D0000229A4B0A980B9901F0B0
:1045E000E6F80022984B01F0DDF802000B000A9873
:1045F0000B9901F0DCF80022944B01F0D3F8020093
:104600000B000A980B9901F0D2F802000B00200071
:10461000290001F0C7F802000B000E980F9901F075
:10462000C6F80022774B01F0BDF832003B0001F0E4
:10463000D8F806000F0004000D00069A079B01F051
:104640002DF9002830D001235B429C46E144002232
:104650007D4B3000390001F0AAF804000D0023E082
:104660001E9B04931D9B03931C9B0293089A099B1A
:104670000092019343460C9A5146584600F0FCF8CC
:1046800011B0F0BCBB46B246A946A046F0BD00231F
:10469000002406930794069680231B069C466544D7
:1046A00007951AE7002399464B466333C62B1ED85D
:1046B00004261E9B1B0526D52B0023430FD0644ADE
:1046C000644B0698079901F0E1F8002879D00022A0
:1046D000614B0698079901F0CBF8002871D01C9B1C
:1046E0004B4506DD4A46981A431E1C9303E00526F7
:1046F000DFE700231C938023DB001E9A1A431E92DF
:104700000026002399461D9B9E4264D29F1B0223D4
:104710001E9A1A400A921E9A134202D0002E00D00E
:1047200000274B46002B07D022002B000698079944
:1047300001F03DF80690079100220023089809999E
:1047400001F096F8002848D1444B1E9A1340049378
:1047500003971C9B0293069B079C0093019443467E
:104760000C9A5146584600F087F8002E00D187E792
:104770001E9B9B063DD54525441C434602005146E1
:104780002800D8474B46DA179B185340052205925C
:10479000013E0496002203920A3202924A46D00F4A
:1047A000019000934346220051465846FFF78AFD88
:1047B0000A9B002B00D163E702005F460C9E1D9D03
:1047C00054E01C9B002B9ED00D9B002B9BD01C9B70
:1047D000013B1C9397E7002799E7069C079D220061
:1047E000290080200006844661440B00069207934E
:1047F000AAE76525C0E7C046FFFFEF7FFFFFEFFF99
:1048000001FCFFFF0000F03FFB799F501344D33FB2
:10481000B3C8608B288AC63F0000F83F61436F63CE
:10482000A787D23F71A379094F930A400000E03F68
:104830001655B5BBB16B0240EF39FAFE422EE63F8A
:10484000FF03000000002C4000002440000018403E
:104850002D431CEBE2361A3F80842E41FFF7FFFF09
:10486000541C434651462020B8472200931BAB42BC
:10487000F6D3100004E7C046F0B5DE4657464E4674
:104880004546E0B595B00690079193469946209F1E
:104890001E9A1F9B1000190001F005F8002831D165
:1048A00001225242BF4B1E981F9900F0E1FF0028E1
:1048B00037D101225242BC4B1E981F9900F0EEFFE7
:1048C00000283DD10022B94B1E981F9900F0E6FF49
:1048D000002850D10022B64B1E981F9900F0C8FF47
:1048E000002848D1002200231E981F9900F0C0FF25
:1048F000002850D100239846229B5B0500D4B6E0E7
:10490000002458E0229B0393219B029303230193ED
:10491000A84B00934B465A4607990698FFF7F2FBBF
:104920000EE1229B0393219B029304230193A24B4C
:1049300000934B465A4607990698FFF7E3FBFFE0C2
:104940000423229A1A4022990B4210D09B4B002A32
:104950000FD0042222990391219902910192009390
:104960004B465A4607990698FFF7CCFBE8E0944B74
:10497000EDE70322EEE7229B0493219B039302972A
:104980001E9B1F9C009301944B465A46079906981C
:10499000FFF768FDD4E01E9A1F9B0020002100F065
:1049A000FCFE1E901F9101239846A5E70CAB302218
:1049B0001A55013F01341F2C01D8092FF6D81E9833
:1049C0001F9900F09BFF050000F080FF02000B0024
:1049D0001E981F9900F0E1FEFA007A4B9B181A68A6
:1049E0005B680A920B9300F0FCFE0890099100F0BE
:1049F000A9FF060000F066FF02000B000898099965
:104A000000F0CBFE0890099100226F4B00F046FFAA
:104A100000282ED00136300000F054FF02000B00B9
:104A20000A980B9900F02AFF002801D001350026D2
:104A3000002F2CD1280000F049FF02000B001E9827
:104A40001F9900F0AAFE06000F0000225E4B00F046
:104A50000FFF002846D100225B4B3000390000F0E8
:104A60001DFF00283ED1EB073CD501353AE0062773
:104A700046E70022544B0898099900F0F9FE0028F7
:104A8000D6D1002E01D0F307D2D50136D0E7AA4601
:104A90001F2C11D8013F0A21300000F043FC651C97
:104AA00030310CAB19550A21300000F03BFC092EC7
:104AB0000ED906002C00EBE755461F2C0CD87B1EA8
:104AC000002F09D00CAA302111551F000134F4E742
:104AD0002B0055461C00F0E71F2C03D80CAB2E22F0
:104AE0001A5501341F2C10D80A21280000F0F2FBBF
:104AF000661C30310CAB19550A21280000F0EAFB86
:104B0000051E01D03400EDE734000323229A134040
:104B1000012B1CD01F2C06D84346002B32D00CABE7
:104B20002D221A550134229B0393219B0293019459
:104B30000CAB00934B465A4607990698FFF7E2FAEA
:104B400015B0F0BCBB46B246A946A046F0BD219BBD
:104B5000002B13D04346002B02D10C3313420FD04D
:104B6000219B013B2193190003E00CAB30221A5525
:104B700001348C42CED21F2CF7D9CBE72199F8E72C
:104B80002199F6E7229B5B0704D50CAB2B221A5523
:104B90000134C8E7229B1B07C5D50CAB20221A5550
:104BA0000134C0E7FFFFEFFFFFFFEF7F65CDCD4191
:104BB00065CDCDC1FCA0011000A10110F4A0011031
:104BC000F0A00110E8A201100000E03FF0B5DE46C1
:104BD00057464E464546E0B593B082468B469046D2
:104BE0001193002900D1EBE200275546119B18785C
:104BF000002800D1E7E2252809D07C1C43463A0072
:104C00005946A847119B013311932700EEE7013362
:104C100011930024119A11780B00203BD8B2102870
:104C200003D88300D048C3589F460B00303BDBB20B
:104C3000092B2CD92A292FD000230A93119B1A78EB
:104C40002E2A39D000239A46119A1378683BD9B29C
:104C5000122976D88B00C549CB589F4601231C43A7
:104C600001321192D6E702231C4301321192D1E79F
:104C700004231C4301321192CCE708231C43013268
:104C80001192C7E710231C4301321192C2E711A809
:104C9000FFF726FA0A90D1E71C9B1A1D1C92186890
:104CA000002804DB0A90119B01331193C6E702230D
:104CB0001C4343420A93F6E78022D20014435A1C55
:104CC00011925A781300303BDBB2092B04D92A2AFF
:104CD00007D000239A46B7E711A8FFF701FA8246EA
:104CE000B2E71C9B1A1D1C921868002804DB824640
:104CF000119B01331193A7E70020F8E780235B00A5
:104D00002343511C119152786C2A01D01C0018E0E9
:104D1000C0239B001C430131119112E080232343E7
:104D2000511C11915278682A01D01C0009E0C0235F
:104D30001C430131119104E080235B001C430132CC
:104D40001192119B18780300253BDAB2532A00D93F
:104D50002CE29300864AD3589F4680239B001C4335
:104D600001321192EDE780235B001C430132119266
:104D7000E7E7782809D0582838D06F2838D062283B
:104D800038D010239C430A2600E01026582833D040
:104D9000692803D0642801D00C229443630501D50F
:104DA0000122944369282AD0642828D0A30500D57D
:104DB0009FE0E30500D5B8E0630600D4CAE01C9A82
:104DC000111D1C911168FF220A4005940A9B04934F
:104DD00053460393029600230193009243463A0000
:104DE00059462800FFF76EFA070027E01026CDE7A6
:104DF0000826CBE70226C9E720221443C8E7A3050B
:104E000020D4E30550D4630666D51C9A111D1C916D
:104E10001168FF220A40D317D118594005940A9B04
:104E20000493534603930296D20F01920091434696
:104E30003A0059462800FFF745FA0700119B013355
:104E40001193D3E61C9BDA1D07218A431100083118
:104E50001C91116853689C46DB170C930D930C9AB8
:104E60000D9B100048400E90624653400F930E98E1
:104E70000F990C9A0D9B801A99410E900F910894EE
:104E80000A9B0793534606930496002305936346B3
:104E9000DA0F02920090019143463A0059462800E9
:104EA000FFF76EFA0700C9E71C9A111D1C911268E2
:104EB000D317D118594005940A9B04935346039382
:104EC0000296D20F0192009143463A0059462800BB
:104ED000FFF7F8F90700B1E7230605D51C9A111D65
:104EE0001C910023D25E96E71C9A111D1C9112683A
:104EF00091E71C9BDA1D07218A43110008311C91A0
:104F000008940A9B0793534606930496002305933F
:104F10000293136854680093019443463A0059463B
:104F20002800FFF72DFA070088E71C9A111D1C9135
:104F300005940A9B0493534603930296002301931E
:104F40001368009343463A0059462800FFF7BAF920
:104F5000070073E723060DD51C9A111D1C911268DA
:104F60001204120C31E7C04608A101104CA1011037
:104F700098A101101C9A111D1C91126825E7462862
:104F80001AD01C9B0733072293431A0008321C9245
:104F900004940A9A0392524602925C681B6800933A
:104FA000019443463A0059462800FFF765FC070084
:104FB000119B0133119319E620231C43E1E7672875
:104FC00001D0472802D180231B011C43452801D072
:104FD000472801D120231C431C9B073307229343FE
:104FE0001A0008321C9204940A9A039252460292C2
:104FF0005C681B680093019443463A0059462800B8
:10500000FFF730FA0700119B01331193EEE50223FD
:105010001A002240924623421FD001241C9B1A1DD5
:105020001C927A1C9146187843463A005946A84784
:105030005346002B16D1119B013311934F46D5E5F2
:10504000561C434659462020B847230032005C1CBA
:105050009D42F5D83D001700E0E701233A002F00FC
:105060000A9DF4E74A46A9460A9D06E0571C4346B6
:1050700059462020C84734003A00661CA542F5D89E
:105080004D469146D7E71C9B1A1D1C921B689946FA
:105090005346002B00D1013B4E4601E00136130080
:1050A0003278002A02D05A1E002BF7D14B46F21A52
:1050B00010928023DB0026001E401C4203D0524584
:1050C00001D95346109302231A0022400B92234227
:1050D00005D03A0037004C46A946554620E03A0034
:1050E000109B5F46B3462E0006E0551C4346390030
:1050F0002020B04723002A005C1C0A999942F4D86A
:1051000035005E46BB46109437004C46A9465546CE
:1051100006E01D000134561C43465946C84732007C
:105120002078002804D0002FF4D06B1E002DF0D181
:1051300017004D460B9B002B03D1119B013311939C
:1051400054E50A9F109B06E0561C43465946202012
:10515000A847230032005C1C9F42F5D81700ECE7FB
:1051600021231C431C9B1A1D1C921B680093059451
:1051700008230493534603931023029300230193BF
:1051800043463A0059462800FFF79CF80700119B58
:10519000013311932AE57C1C43463A0059462520E9
:1051A000A847119B0133119327001FE57C1C434640
:1051B0003A005946A847119B01331193270015E582
:1051C0000A4B9A4610E5AA46474502D343465A1E63
:1051D00000E03A00434659460020D047380013B05B
:1051E000F0BCBB46B246A946A046F0BDD140001077
:1051F0000EB410B585B0010007AC08CC03940122B1
:10520000009452420348FFF7E1FC05B010BC08BC13
:1052100003B01847C94000100CB410B584B00A00A0
:1052200006AC08CC0394009401000448FFF7CEFCC0
:1052300004B010BC08BC02B01847C046C9400010FA
:1052400000B585B0029003910121009313004A42FA
:1052500002A90248FFF7BAFC05B000BDD340001018
:1052600001480421014B1847600E00209D52001098
:10527000014B9B6818470000600E002010B501002C
:1052800018231B8814221088984710BD10B5010000
:1052900018231B8816221088984710BDF0B5C64603
:1052A00000B507000E0000250123984600E00135F7
:1052B000B5420AD2AC003C192068FFF7DFFF20603E
:1052C0000028F4D100239846F1E7404680BCB84658
:1052D000F0BD0000124A936F9B0815D29066D1660C
:1052E000002905D0FFE7FFE7FFE7516F106F704718
:1052F00004B580210906C2175140002800D0C843D8
:1053000013F022FD002104BDF0B5146E556E576FE9
:10531000166FFFF7E3FF1466556657671667F0BD13
:10532000000000D0114A936F9B0813D2106651669B
:10533000002905D0FFE7FFE7FFE7516F106F7047C7
:1053400004B5002801D00020C04313F0FDFC00216B
:1053500004BDC046F0B5146E556E576F166FFFF75B
:10536000E5FF1466556657671667F0BD000000D06C
:1053700094464A4A926F9208624601D228E0C0469B
:10538000F0B5464E346E756E776F366F00F020F8CC
:105390009446424A14665566576716676246F0BDE2
:1053A00094463E4A926F9208624601D254E0C0464B
:1053B000F0B53A4E346E756E776F366F00F04CF87C
:1053C0009446364A14665566576716676246F0BDBE
:1053D000002B24DB11D000293EDA00B5C94340423E
:1053E00000D1013100F038F8C943404200D1013109
:1053F000DB43524200D1013300BD002AEBD100282B
:1054000001D1002905D00020C90FC90701D1C0432F
:10541000410800B513F080FC0022002300BD00B558
:1054200000290ADBDB43524200D1013300F014F8BB
:10543000C943404200D1013100BDC943404200D1BF
:105440000131DB43524200D1013300F005F8DB4368
:10545000524200D1013300BD002923D1002B18D1C5
:10546000002A0CD0BC460D4F38667A660021002316
:10547000FFE7FFE7FFE77A6F386F6746704700285E
:1054800001D00748010000B513F046FC00220023BC
:1054900000BD02000B00002000217047000000D07A
:1054A000FFFFFFFF002B00D0BFE0130C28D1002A24
:1054B000E7D080B4114F39667A66FFE7FFE730B472
:1054C000040C7B6F396F1B0423433B667A66FFE74E
:1054D000FFE7FFE7C04684B27B6F3D6F1B042343A9
:1054E0003B667A66FFE7FFE7C04600232C042D0CDD
:1054F0007A6F386F00196941B0BC7047000000D066
:10550000F0B594460025140E01D112020835140F8F
:1055100001D112010435940F01D192000235D40F4C
:1055200001D152000135D40B0134254F7C66254C46
:105530003C660E0C93B2FFE7FFE7FFE73C6F664364
:10554000360C7703BE467343DF0B5B04C01AB941C8
:10555000130C7343DB18C91ACE086643360CB644E5
:1055600093B273431F0F1B01C01AB941130C73434D
:105570001F0B1B05C01AB941860D8F023E436643BF
:10558000360C092D24DB520A7243801A7703460A2F
:105590006643360C16235B1BDE40DF40BF196446B2
:1055A0006643821B7046043506330100D940A8408B
:1055B000C01900D30131A24206D20023F0BD000081
:1055C000000000D0FFFFFFFF121B0130F3D3F1E713
:1055D00009277F1BFE406446A2B27243801A00D2A4
:1055E0000139220C7243130C1204821A99410B00E8
:1055F0007046043513370100F940A840801900D3E4
:105600000131002B02D1A2420AD2F0BD013000D3F9
:105610000131121BFAD2013BF8D1A24200D2F0BDF7
:10562000013000D30131121BF7E7F0B51C0C00D09C
:1056300080E00CB400251C0A04D11B02160E334373
:10564000120208351C0B04D11B01160F3343120143
:1056500004359C0B04D19B00960F33439200023516
:10566000DC0B02D192185B4101351C009718644194
:105670000134464F7C66464C3C660E0CFFE7FFE764
:10568000FFE7C0463C6F6643360C7703BE4697B2D1
:105690007743C01B00D20139C01B00D201399FB231
:1056A0007743C91BC91B170C77437E04FF0B801B74
:1056B000B941CE086643360C0C2D33DBB644120BD1
:1056C0001F053A431B0B97B27743C01B00D2013929
:1056D0009FB27743C91B170C77433E043F0C801BD6
:1056E000B941860D8F023E43664329277F1BFE404A
:1056F0000C3D7746AF40BF1930BCA2B2ABB272438B
:105700007343801A9941220C7243130C1204801ABD
:10571000994102000B000137001BA941F9D2781E04
:105720000021F0BD0C277F1BFE4077467F0BAF406A
:10573000FF19E0E700245D1C07D0144F7D66396631
:10574000FFE7FFE7FFE7FFE73C6F95B29EB26543D7
:105750006643401BB141150C1E0C6543664336047D
:105760002F0C3E432D04401BB141994204D202004C
:105770000B0020000021F0BD01D19042F7D3801A28
:10578000994101349942F2D3F6E70000000000D0BD
:10579000FFFFFFFF48404140484018B4134B5B688F
:1057A000019308BD18B4114B1B68019308BD9446C2
:1057B0000F4A926F920805D2624618B40B4BDB6811
:1057C000019308BD0A4AF0B5146E556E576F166FF7
:1057D0006246FFF7F2FF064A14665566576716677A
:1057E000F0BD18B4014B9B68019308BD40E3002055
:1057F000000000D0FFB550404240504059404B405F
:10580000594000E0FFB5154F4C00640D03D0BC4279
:1058100004D10C0314D80020090D09055C00640DA7
:1058200003D0BC4204D11C030AD800221B0D1B0567
:1058300001264B4009D44B4003D58B4200D1824214
:10584000FFBD9942FCD19042FFBD0B43DB180343DF
:105850001343F5D0C9434918FFBD0000FF070000FE
:1058600000B5FFF7CFFF01D0002000BD012000BD33
:1058700000B5FFF7C7FF804100BDC04600B5FFF788
:10588000C1FF01D9002000BD012000BD00B5FFF718
:10589000B1FF01D9002000BD012000BD00B5FFF718
:1058A000A9FF804100BD012040054A00121804D81C
:1058B0005A00121801D800207047012070470020BC
:1058C000704700000021002805D17047C1174840EB
:1058D000401AFAD0C90713B5064B1B6898470CBC91
:1058E000441CA2401005120B0349091B090519436A
:1058F000114310BD44E400201F04000010B54C000B
:10590000620D8023D218DB00D21A5B057E2A10DDDF
:105910009E3A13DACC170903490819435242D14081
:10592000640001341532202A05DAD0400843604370
:1059300010BD002010BD0846604310BDC80FC01840
:10594000013810BD18B4024B5B6A019308BD00001A
:1059500040E3002018B4024BDB6F019308BD000048
:1059600040E3002018B4024BDB6C019308BD00003B
:1059700040E3002018B4024B1B6D019308BD0000EA
:1059800040E3002010B50148FEF780FB38A301106A
:1059900070B513231C78012C14D0012C14DC022CBC
:1059A00002DC1F4A1F4B9A641F48FFF767FC1F4B1E
:1059B000186070BD99001E481A4A885001331F2B89
:1059C000F8D9EAE70023FAE71A48FFF75FFC050079
:1059D0001948FFF75BFC023803789B007F2B19DD29
:1059E000802229000F4800F02FFE022CD7D1134B44
:1059F0001A88B5231B029A4209D1114B1A88114B00
:105A00009A4204D1104B1A88104B9A42C7D00020FA
:105A1000FEF73CFB0E4B0F4A32210F48FEF74EFAC1
:105A20000564001040E300204C33000044E40020F3
:105A300085590010534400005346000054380000BC
:105A4000D8380000494600009C3800005946000044
:105A500050A3011008A40110A4A3011070B5040004
:105A60000D001600012A0ED0D20F92195210FFF726
:105A7000F5FF02000B00FFF7B4FEF30703D5220089
:105A80002B00FFF7AEFE70BDF0B5D6464F4646463A
:105A9000C0B588B014001D000E0D7605760D974B2D
:105AA0009846B044964B9B1B009001910F0D7F05CB
:105AB00014D0944FBE4211D0991900290ADD9248A2
:105AC00081423ADD019BDB0FDB0700208F4A1A433E
:105AD000110003E00020019BDB0FD907FFF74AFF0D
